{
	"contracts/hi.sol": {
		"OnlineShop": {
			"abi": [
				{
					"inputs": [],
					"stateMutability": "nonpayable",
					"type": "constructor"
				},
				{
					"anonymous": false,
					"inputs": [
						{
							"indexed": false,
							"internalType": "uint256",
							"name": "id",
							"type": "uint256"
						},
						{
							"indexed": false,
							"internalType": "string",
							"name": "name",
							"type": "string"
						},
						{
							"indexed": false,
							"internalType": "uint256",
							"name": "price",
							"type": "uint256"
						},
						{
							"indexed": false,
							"internalType": "uint256",
							"name": "stock",
							"type": "uint256"
						}
					],
					"name": "ProductAdded",
					"type": "event"
				},
				{
					"anonymous": false,
					"inputs": [
						{
							"indexed": false,
							"internalType": "uint256",
							"name": "id",
							"type": "uint256"
						},
						{
							"indexed": false,
							"internalType": "address",
							"name": "buyer",
							"type": "address"
						},
						{
							"indexed": false,
							"internalType": "uint256",
							"name": "quantity",
							"type": "uint256"
						}
					],
					"name": "ProductPurchased",
					"type": "event"
				},
				{
					"inputs": [
						{
							"internalType": "string",
							"name": "_name",
							"type": "string"
						},
						{
							"internalType": "uint256",
							"name": "_price",
							"type": "uint256"
						},
						{
							"internalType": "uint256",
							"name": "_stock",
							"type": "uint256"
						}
					],
					"name": "addProduct",
					"outputs": [],
					"stateMutability": "nonpayable",
					"type": "function"
				},
				{
					"inputs": [],
					"name": "owner",
					"outputs": [
						{
							"internalType": "address",
							"name": "",
							"type": "address"
						}
					],
					"stateMutability": "view",
					"type": "function"
				},
				{
					"inputs": [],
					"name": "productCount",
					"outputs": [
						{
							"internalType": "uint256",
							"name": "",
							"type": "uint256"
						}
					],
					"stateMutability": "view",
					"type": "function"
				},
				{
					"inputs": [
						{
							"internalType": "uint256",
							"name": "",
							"type": "uint256"
						}
					],
					"name": "products",
					"outputs": [
						{
							"internalType": "uint256",
							"name": "id",
							"type": "uint256"
						},
						{
							"internalType": "string",
							"name": "name",
							"type": "string"
						},
						{
							"internalType": "uint256",
							"name": "price",
							"type": "uint256"
						},
						{
							"internalType": "uint256",
							"name": "stock",
							"type": "uint256"
						}
					],
					"stateMutability": "view",
					"type": "function"
				},
				{
					"inputs": [
						{
							"internalType": "uint256",
							"name": "_id",
							"type": "uint256"
						},
						{
							"internalType": "uint256",
							"name": "_quantity",
							"type": "uint256"
						}
					],
					"name": "purchaseProduct",
					"outputs": [],
					"stateMutability": "payable",
					"type": "function"
				},
				{
					"inputs": [],
					"name": "withdrawFunds",
					"outputs": [],
					"stateMutability": "nonpayable",
					"type": "function"
				}
			],
			"devdoc": {
				"kind": "dev",
				"methods": {},
				"version": 1
			},
			"evm": {
				"assembly": "    /* \"contracts/hi.sol\":60:1605  contract OnlineShop {... */\n  mstore(0x40, 0x80)\n    /* \"contracts/hi.sol\":576:627  constructor() {... */\n  callvalue\n  dup1\n  iszero\n  tag_1\n  jumpi\n  0x00\n  dup1\n  revert\ntag_1:\n  pop\n    /* \"contracts/hi.sol\":609:619  msg.sender */\n  caller\n    /* \"contracts/hi.sol\":601:606  owner */\n  0x00\n  dup1\n    /* \"contracts/hi.sol\":601:619  owner = msg.sender */\n  0x0100\n  exp\n  dup2\n  sload\n  dup2\n  0xffffffffffffffffffffffffffffffffffffffff\n  mul\n  not\n  and\n  swap1\n  dup4\n  0xffffffffffffffffffffffffffffffffffffffff\n  and\n  mul\n  or\n  swap1\n  sstore\n  pop\n    /* \"contracts/hi.sol\":60:1605  contract OnlineShop {... */\n  dataSize(sub_0)\n  dup1\n  dataOffset(sub_0)\n  0x00\n  codecopy\n  0x00\n  return\nstop\n\nsub_0: assembly {\n        /* \"contracts/hi.sol\":60:1605  contract OnlineShop {... */\n      mstore(0x40, 0x80)\n      jumpi(tag_1, lt(calldatasize, 0x04))\n      shr(0xe0, calldataload(0x00))\n      dup1\n      0x125b0b34\n      eq\n      tag_2\n      jumpi\n      dup1\n      0x24600fc3\n      eq\n      tag_3\n      jumpi\n      dup1\n      0x7acc0b20\n      eq\n      tag_4\n      jumpi\n      dup1\n      0x8da5cb5b\n      eq\n      tag_5\n      jumpi\n      dup1\n      0xa0440426\n      eq\n      tag_6\n      jumpi\n      dup1\n      0xe0f6ef87\n      eq\n      tag_7\n      jumpi\n    tag_1:\n      0x00\n      dup1\n      revert\n        /* \"contracts/hi.sol\":635:1031  function addProduct(string memory _name, uint _price, uint _stock) public onlyOwner {... */\n    tag_2:\n      callvalue\n      dup1\n      iszero\n      tag_8\n      jumpi\n      0x00\n      dup1\n      revert\n    tag_8:\n      pop\n      tag_9\n      0x04\n      dup1\n      calldatasize\n      sub\n      dup2\n      add\n      swap1\n      tag_10\n      swap2\n      swap1\n      tag_11\n      jump\t// in\n    tag_10:\n      tag_12\n      jump\t// in\n    tag_9:\n      stop\n        /* \"contracts/hi.sol\":1495:1602  function withdrawFunds() public onlyOwner {... */\n    tag_3:\n      callvalue\n      dup1\n      iszero\n      tag_13\n      jumpi\n      0x00\n      dup1\n      revert\n    tag_13:\n      pop\n      tag_14\n      tag_15\n      jump\t// in\n    tag_14:\n      stop\n        /* \"contracts/hi.sol\":229:269  mapping(uint => Product) public products */\n    tag_4:\n      callvalue\n      dup1\n      iszero\n      tag_16\n      jumpi\n      0x00\n      dup1\n      revert\n    tag_16:\n      pop\n      tag_17\n      0x04\n      dup1\n      calldatasize\n      sub\n      dup2\n      add\n      swap1\n      tag_18\n      swap2\n      swap1\n      tag_19\n      jump\t// in\n    tag_18:\n      tag_20\n      jump\t// in\n    tag_17:\n      mload(0x40)\n      tag_21\n      swap5\n      swap4\n      swap3\n      swap2\n      swap1\n      tag_22\n      jump\t// in\n    tag_21:\n      mload(0x40)\n      dup1\n      swap2\n      sub\n      swap1\n      return\n        /* \"contracts/hi.sol\":87:107  address public owner */\n    tag_5:\n      callvalue\n      dup1\n      iszero\n      tag_23\n      jumpi\n      0x00\n      dup1\n      revert\n    tag_23:\n      pop\n      tag_24\n      tag_25\n      jump\t// in\n    tag_24:\n      mload(0x40)\n      tag_26\n      swap2\n      swap1\n      tag_27\n      jump\t// in\n    tag_26:\n      mload(0x40)\n      dup1\n      swap2\n      sub\n      swap1\n      return\n        /* \"contracts/hi.sol\":1039:1487  function purchaseProduct(uint _id, uint _quantity) public payable {... */\n    tag_6:\n      tag_28\n      0x04\n      dup1\n      calldatasize\n      sub\n      dup2\n      add\n      swap1\n      tag_29\n      swap2\n      swap1\n      tag_30\n      jump\t// in\n    tag_29:\n      tag_31\n      jump\t// in\n    tag_28:\n      stop\n        /* \"contracts/hi.sol\":276:300  uint public productCount */\n    tag_7:\n      callvalue\n      dup1\n      iszero\n      tag_32\n      jumpi\n      0x00\n      dup1\n      revert\n    tag_32:\n      pop\n      tag_33\n      tag_34\n      jump\t// in\n    tag_33:\n      mload(0x40)\n      tag_35\n      swap2\n      swap1\n      tag_36\n      jump\t// in\n    tag_35:\n      mload(0x40)\n      dup1\n      swap2\n      sub\n      swap1\n      return\n        /* \"contracts/hi.sol\":635:1031  function addProduct(string memory _name, uint _price, uint _stock) public onlyOwner {... */\n    tag_12:\n        /* \"contracts/hi.sol\":504:509  owner */\n      0x00\n      dup1\n      sload\n      swap1\n      0x0100\n      exp\n      swap1\n      div\n      0xffffffffffffffffffffffffffffffffffffffff\n      and\n        /* \"contracts/hi.sol\":490:509  msg.sender == owner */\n      0xffffffffffffffffffffffffffffffffffffffff\n      and\n        /* \"contracts/hi.sol\":490:500  msg.sender */\n      caller\n        /* \"contracts/hi.sol\":490:509  msg.sender == owner */\n      0xffffffffffffffffffffffffffffffffffffffff\n      and\n      eq\n        /* \"contracts/hi.sol\":482:548  require(msg.sender == owner, \"Only owner can perform this action\") */\n      tag_38\n      jumpi\n      mload(0x40)\n      0x08c379a000000000000000000000000000000000000000000000000000000000\n      dup2\n      mstore\n      0x04\n      add\n      tag_39\n      swap1\n      tag_40\n      jump\t// in\n    tag_39:\n      mload(0x40)\n      dup1\n      swap2\n      sub\n      swap1\n      revert\n    tag_38:\n        /* \"contracts/hi.sol\":747:748  0 */\n      0x00\n        /* \"contracts/hi.sol\":738:744  _price */\n      dup3\n        /* \"contracts/hi.sol\":738:748  _price > 0 */\n      gt\n        /* \"contracts/hi.sol\":730:784  require(_price > 0, \"Price must be greater than zero\") */\n      tag_42\n      jumpi\n      mload(0x40)\n      0x08c379a000000000000000000000000000000000000000000000000000000000\n      dup2\n      mstore\n      0x04\n      add\n      tag_43\n      swap1\n      tag_44\n      jump\t// in\n    tag_43:\n      mload(0x40)\n      dup1\n      swap2\n      sub\n      swap1\n      revert\n    tag_42:\n        /* \"contracts/hi.sol\":812:813  0 */\n      0x00\n        /* \"contracts/hi.sol\":803:809  _stock */\n      dup2\n        /* \"contracts/hi.sol\":803:813  _stock > 0 */\n      gt\n        /* \"contracts/hi.sol\":795:849  require(_stock > 0, \"Stock must be greater than zero\") */\n      tag_45\n      jumpi\n      mload(0x40)\n      0x08c379a000000000000000000000000000000000000000000000000000000000\n      dup2\n      mstore\n      0x04\n      add\n      tag_46\n      swap1\n      tag_47\n      jump\t// in\n    tag_46:\n      mload(0x40)\n      dup1\n      swap2\n      sub\n      swap1\n      revert\n    tag_45:\n        /* \"contracts/hi.sol\":862:874  productCount */\n      0x02\n      0x00\n        /* \"contracts/hi.sol\":862:876  productCount++ */\n      dup2\n      sload\n      dup1\n      swap3\n      swap2\n      swap1\n      tag_48\n      swap1\n      tag_49\n      jump\t// in\n    tag_48:\n      swap2\n      swap1\n      pop\n      sstore\n      pop\n        /* \"contracts/hi.sol\":912:956  Product(productCount, _name, _price, _stock) */\n      mload(0x40)\n      dup1\n      0x80\n      add\n      0x40\n      mstore\n      dup1\n        /* \"contracts/hi.sol\":920:932  productCount */\n      sload(0x02)\n        /* \"contracts/hi.sol\":912:956  Product(productCount, _name, _price, _stock) */\n      dup2\n      mstore\n      0x20\n      add\n        /* \"contracts/hi.sol\":934:939  _name */\n      dup5\n        /* \"contracts/hi.sol\":912:956  Product(productCount, _name, _price, _stock) */\n      dup2\n      mstore\n      0x20\n      add\n        /* \"contracts/hi.sol\":941:947  _price */\n      dup4\n        /* \"contracts/hi.sol\":912:956  Product(productCount, _name, _price, _stock) */\n      dup2\n      mstore\n      0x20\n      add\n        /* \"contracts/hi.sol\":949:955  _stock */\n      dup3\n        /* \"contracts/hi.sol\":912:956  Product(productCount, _name, _price, _stock) */\n      dup2\n      mstore\n      pop\n        /* \"contracts/hi.sol\":887:895  products */\n      0x01\n        /* \"contracts/hi.sol\":887:909  products[productCount] */\n      0x00\n        /* \"contracts/hi.sol\":896:908  productCount */\n      sload(0x02)\n        /* \"contracts/hi.sol\":887:909  products[productCount] */\n      dup2\n      mstore\n      0x20\n      add\n      swap1\n      dup2\n      mstore\n      0x20\n      add\n      0x00\n      keccak256\n        /* \"contracts/hi.sol\":887:956  products[productCount] = Product(productCount, _name, _price, _stock) */\n      0x00\n      dup3\n      add\n      mload\n      dup2\n      0x00\n      add\n      sstore\n      0x20\n      dup3\n      add\n      mload\n      dup2\n      0x01\n      add\n      swap1\n      dup2\n      tag_50\n      swap2\n      swap1\n      tag_51\n      jump\t// in\n    tag_50:\n      pop\n      0x40\n      dup3\n      add\n      mload\n      dup2\n      0x02\n      add\n      sstore\n      0x60\n      dup3\n      add\n      mload\n      dup2\n      0x03\n      add\n      sstore\n      swap1\n      pop\n      pop\n        /* \"contracts/hi.sol\":974:1023  ProductAdded(productCount, _name, _price, _stock) */\n      0x0107e99fb43ba873db8a5ce7c34a12cd44cd3041167cff32040ddb6aca455ae6\n        /* \"contracts/hi.sol\":987:999  productCount */\n      sload(0x02)\n        /* \"contracts/hi.sol\":1001:1006  _name */\n      dup5\n        /* \"contracts/hi.sol\":1008:1014  _price */\n      dup5\n        /* \"contracts/hi.sol\":1016:1022  _stock */\n      dup5\n        /* \"contracts/hi.sol\":974:1023  ProductAdded(productCount, _name, _price, _stock) */\n      mload(0x40)\n      tag_52\n      swap5\n      swap4\n      swap3\n      swap2\n      swap1\n      tag_22\n      jump\t// in\n    tag_52:\n      mload(0x40)\n      dup1\n      swap2\n      sub\n      swap1\n      log1\n        /* \"contracts/hi.sol\":635:1031  function addProduct(string memory _name, uint _price, uint _stock) public onlyOwner {... */\n      pop\n      pop\n      pop\n      jump\t// out\n        /* \"contracts/hi.sol\":1495:1602  function withdrawFunds() public onlyOwner {... */\n    tag_15:\n        /* \"contracts/hi.sol\":504:509  owner */\n      0x00\n      dup1\n      sload\n      swap1\n      0x0100\n      exp\n      swap1\n      div\n      0xffffffffffffffffffffffffffffffffffffffff\n      and\n        /* \"contracts/hi.sol\":490:509  msg.sender == owner */\n      0xffffffffffffffffffffffffffffffffffffffff\n      and\n        /* \"contracts/hi.sol\":490:500  msg.sender */\n      caller\n        /* \"contracts/hi.sol\":490:509  msg.sender == owner */\n      0xffffffffffffffffffffffffffffffffffffffff\n      and\n      eq\n        /* \"contracts/hi.sol\":482:548  require(msg.sender == owner, \"Only owner can perform this action\") */\n      tag_54\n      jumpi\n      mload(0x40)\n      0x08c379a000000000000000000000000000000000000000000000000000000000\n      dup2\n      mstore\n      0x04\n      add\n      tag_55\n      swap1\n      tag_40\n      jump\t// in\n    tag_55:\n      mload(0x40)\n      dup1\n      swap2\n      sub\n      swap1\n      revert\n    tag_54:\n        /* \"contracts/hi.sol\":1556:1561  owner */\n      0x00\n      dup1\n      sload\n      swap1\n      0x0100\n      exp\n      swap1\n      div\n      0xffffffffffffffffffffffffffffffffffffffff\n      and\n        /* \"contracts/hi.sol\":1548:1571  payable(owner).transfer */\n      0xffffffffffffffffffffffffffffffffffffffff\n      and\n        /* \"contracts/hi.sol\":1548:1594  payable(owner).transfer(address(this).balance) */\n      0x08fc\n        /* \"contracts/hi.sol\":1572:1593  address(this).balance */\n      selfbalance\n        /* \"contracts/hi.sol\":1548:1594  payable(owner).transfer(address(this).balance) */\n      swap1\n      dup2\n      iszero\n      mul\n      swap1\n      mload(0x40)\n      0x00\n      mload(0x40)\n      dup1\n      dup4\n      sub\n      dup2\n      dup6\n      dup9\n      dup9\n      call\n      swap4\n      pop\n      pop\n      pop\n      pop\n      iszero\n      dup1\n      iszero\n      tag_58\n      jumpi\n      returndatasize\n      0x00\n      dup1\n      returndatacopy\n      revert(0x00, returndatasize)\n    tag_58:\n      pop\n        /* \"contracts/hi.sol\":1495:1602  function withdrawFunds() public onlyOwner {... */\n      jump\t// out\n        /* \"contracts/hi.sol\":229:269  mapping(uint => Product) public products */\n    tag_20:\n      mstore(0x20, 0x01)\n      dup1\n      0x00\n      mstore\n      keccak256(0x00, 0x40)\n      0x00\n      swap2\n      pop\n      swap1\n      pop\n      dup1\n      0x00\n      add\n      sload\n      swap1\n      dup1\n      0x01\n      add\n      dup1\n      sload\n      tag_59\n      swap1\n      tag_60\n      jump\t// in\n    tag_59:\n      dup1\n      0x1f\n      add\n      0x20\n      dup1\n      swap2\n      div\n      mul\n      0x20\n      add\n      mload(0x40)\n      swap1\n      dup2\n      add\n      0x40\n      mstore\n      dup1\n      swap3\n      swap2\n      swap1\n      dup2\n      dup2\n      mstore\n      0x20\n      add\n      dup3\n      dup1\n      sload\n      tag_61\n      swap1\n      tag_60\n      jump\t// in\n    tag_61:\n      dup1\n      iszero\n      tag_62\n      jumpi\n      dup1\n      0x1f\n      lt\n      tag_63\n      jumpi\n      0x0100\n      dup1\n      dup4\n      sload\n      div\n      mul\n      dup4\n      mstore\n      swap2\n      0x20\n      add\n      swap2\n      jump(tag_62)\n    tag_63:\n      dup3\n      add\n      swap2\n      swap1\n      0x00\n      mstore\n      keccak256(0x00, 0x20)\n      swap1\n    tag_64:\n      dup2\n      sload\n      dup2\n      mstore\n      swap1\n      0x01\n      add\n      swap1\n      0x20\n      add\n      dup1\n      dup4\n      gt\n      tag_64\n      jumpi\n      dup3\n      swap1\n      sub\n      0x1f\n      and\n      dup3\n      add\n      swap2\n    tag_62:\n      pop\n      pop\n      pop\n      pop\n      pop\n      swap1\n      dup1\n      0x02\n      add\n      sload\n      swap1\n      dup1\n      0x03\n      add\n      sload\n      swap1\n      pop\n      dup5\n      jump\t// out\n        /* \"contracts/hi.sol\":87:107  address public owner */\n    tag_25:\n      0x00\n      dup1\n      sload\n      swap1\n      0x0100\n      exp\n      swap1\n      div\n      0xffffffffffffffffffffffffffffffffffffffff\n      and\n      dup2\n      jump\t// out\n        /* \"contracts/hi.sol\":1039:1487  function purchaseProduct(uint _id, uint _quantity) public payable {... */\n    tag_31:\n        /* \"contracts/hi.sol\":1116:1139  Product storage product */\n      0x00\n        /* \"contracts/hi.sol\":1142:1150  products */\n      0x01\n        /* \"contracts/hi.sol\":1142:1155  products[_id] */\n      0x00\n        /* \"contracts/hi.sol\":1151:1154  _id */\n      dup5\n        /* \"contracts/hi.sol\":1142:1155  products[_id] */\n      dup2\n      mstore\n      0x20\n      add\n      swap1\n      dup2\n      mstore\n      0x20\n      add\n      0x00\n      keccak256\n        /* \"contracts/hi.sol\":1116:1155  Product storage product = products[_id] */\n      swap1\n      pop\n        /* \"contracts/hi.sol\":1188:1189  0 */\n      0x00\n        /* \"contracts/hi.sol\":1174:1181  product */\n      dup2\n        /* \"contracts/hi.sol\":1174:1184  product.id */\n      0x00\n      add\n      sload\n        /* \"contracts/hi.sol\":1174:1189  product.id != 0 */\n      sub\n        /* \"contracts/hi.sol\":1166:1216  require(product.id != 0, \"Product does not exist\") */\n      tag_66\n      jumpi\n      mload(0x40)\n      0x08c379a000000000000000000000000000000000000000000000000000000000\n      dup2\n      mstore\n      0x04\n      add\n      tag_67\n      swap1\n      tag_68\n      jump\t// in\n    tag_67:\n      mload(0x40)\n      dup1\n      swap2\n      sub\n      swap1\n      revert\n    tag_66:\n        /* \"contracts/hi.sol\":1252:1261  _quantity */\n      dup2\n        /* \"contracts/hi.sol\":1235:1242  product */\n      dup2\n        /* \"contracts/hi.sol\":1235:1248  product.stock */\n      0x03\n      add\n      sload\n        /* \"contracts/hi.sol\":1235:1261  product.stock >= _quantity */\n      lt\n      iszero\n        /* \"contracts/hi.sol\":1227:1292  require(product.stock >= _quantity, \"Not enough stock available\") */\n      tag_69\n      jumpi\n      mload(0x40)\n      0x08c379a000000000000000000000000000000000000000000000000000000000\n      dup2\n      mstore\n      0x04\n      add\n      tag_70\n      swap1\n      tag_71\n      jump\t// in\n    tag_70:\n      mload(0x40)\n      dup1\n      swap2\n      sub\n      swap1\n      revert\n    tag_69:\n        /* \"contracts/hi.sol\":1340:1349  _quantity */\n      dup2\n        /* \"contracts/hi.sol\":1324:1331  product */\n      dup2\n        /* \"contracts/hi.sol\":1324:1337  product.price */\n      0x02\n      add\n      sload\n        /* \"contracts/hi.sol\":1324:1349  product.price * _quantity */\n      tag_72\n      swap2\n      swap1\n      tag_73\n      jump\t// in\n    tag_72:\n        /* \"contracts/hi.sol\":1311:1320  msg.value */\n      callvalue\n        /* \"contracts/hi.sol\":1311:1349  msg.value == product.price * _quantity */\n      eq\n        /* \"contracts/hi.sol\":1303:1378  require(msg.value == product.price * _quantity, \"Incorrect payment amount\") */\n      tag_74\n      jumpi\n      mload(0x40)\n      0x08c379a000000000000000000000000000000000000000000000000000000000\n      dup2\n      mstore\n      0x04\n      add\n      tag_75\n      swap1\n      tag_76\n      jump\t// in\n    tag_75:\n      mload(0x40)\n      dup1\n      swap2\n      sub\n      swap1\n      revert\n    tag_74:\n        /* \"contracts/hi.sol\":1408:1417  _quantity */\n      dup2\n        /* \"contracts/hi.sol\":1391:1398  product */\n      dup2\n        /* \"contracts/hi.sol\":1391:1404  product.stock */\n      0x03\n      add\n      0x00\n        /* \"contracts/hi.sol\":1391:1417  product.stock -= _quantity */\n      dup3\n      dup3\n      sload\n      tag_77\n      swap2\n      swap1\n      tag_78\n      jump\t// in\n    tag_77:\n      swap3\n      pop\n      pop\n      dup2\n      swap1\n      sstore\n      pop\n        /* \"contracts/hi.sol\":1435:1479  ProductPurchased(_id, msg.sender, _quantity) */\n      0xa530f889d7f1bd9a73028e48944ca013ab2c6624a31e3fa26f923f4bb719abd5\n        /* \"contracts/hi.sol\":1452:1455  _id */\n      dup4\n        /* \"contracts/hi.sol\":1457:1467  msg.sender */\n      caller\n        /* \"contracts/hi.sol\":1469:1478  _quantity */\n      dup5\n        /* \"contracts/hi.sol\":1435:1479  ProductPurchased(_id, msg.sender, _quantity) */\n      mload(0x40)\n      tag_79\n      swap4\n      swap3\n      swap2\n      swap1\n      tag_80\n      jump\t// in\n    tag_79:\n      mload(0x40)\n      dup1\n      swap2\n      sub\n      swap1\n      log1\n        /* \"contracts/hi.sol\":1105:1487  {... */\n      pop\n        /* \"contracts/hi.sol\":1039:1487  function purchaseProduct(uint _id, uint _quantity) public payable {... */\n      pop\n      pop\n      jump\t// out\n        /* \"contracts/hi.sol\":276:300  uint public productCount */\n    tag_34:\n      sload(0x02)\n      dup2\n      jump\t// out\n        /* \"#utility.yul\":7:82   */\n    tag_81:\n        /* \"#utility.yul\":40:46   */\n      0x00\n        /* \"#utility.yul\":73:75   */\n      0x40\n        /* \"#utility.yul\":67:76   */\n      mload\n        /* \"#utility.yul\":57:76   */\n      swap1\n      pop\n        /* \"#utility.yul\":7:82   */\n      swap1\n      jump\t// out\n        /* \"#utility.yul\":88:205   */\n    tag_82:\n        /* \"#utility.yul\":197:198   */\n      0x00\n        /* \"#utility.yul\":194:195   */\n      dup1\n        /* \"#utility.yul\":187:199   */\n      revert\n        /* \"#utility.yul\":211:328   */\n    tag_83:\n        /* \"#utility.yul\":320:321   */\n      0x00\n        /* \"#utility.yul\":317:318   */\n      dup1\n        /* \"#utility.yul\":310:322   */\n      revert\n        /* \"#utility.yul\":334:451   */\n    tag_84:\n        /* \"#utility.yul\":443:444   */\n      0x00\n        /* \"#utility.yul\":440:441   */\n      dup1\n        /* \"#utility.yul\":433:445   */\n      revert\n        /* \"#utility.yul\":457:574   */\n    tag_85:\n        /* \"#utility.yul\":566:567   */\n      0x00\n        /* \"#utility.yul\":563:564   */\n      dup1\n        /* \"#utility.yul\":556:568   */\n      revert\n        /* \"#utility.yul\":580:682   */\n    tag_86:\n        /* \"#utility.yul\":621:627   */\n      0x00\n        /* \"#utility.yul\":672:674   */\n      0x1f\n        /* \"#utility.yul\":668:675   */\n      not\n        /* \"#utility.yul\":663:665   */\n      0x1f\n        /* \"#utility.yul\":656:661   */\n      dup4\n        /* \"#utility.yul\":652:666   */\n      add\n        /* \"#utility.yul\":648:676   */\n      and\n        /* \"#utility.yul\":638:676   */\n      swap1\n      pop\n        /* \"#utility.yul\":580:682   */\n      swap2\n      swap1\n      pop\n      jump\t// out\n        /* \"#utility.yul\":688:868   */\n    tag_87:\n        /* \"#utility.yul\":736:813   */\n      0x4e487b7100000000000000000000000000000000000000000000000000000000\n        /* \"#utility.yul\":733:734   */\n      0x00\n        /* \"#utility.yul\":726:814   */\n      mstore\n        /* \"#utility.yul\":833:837   */\n      0x41\n        /* \"#utility.yul\":830:831   */\n      0x04\n        /* \"#utility.yul\":823:838   */\n      mstore\n        /* \"#utility.yul\":857:861   */\n      0x24\n        /* \"#utility.yul\":854:855   */\n      0x00\n        /* \"#utility.yul\":847:862   */\n      revert\n        /* \"#utility.yul\":874:1155   */\n    tag_88:\n        /* \"#utility.yul\":957:984   */\n      tag_143\n        /* \"#utility.yul\":979:983   */\n      dup3\n        /* \"#utility.yul\":957:984   */\n      tag_86\n      jump\t// in\n    tag_143:\n        /* \"#utility.yul\":949:955   */\n      dup2\n        /* \"#utility.yul\":945:985   */\n      add\n        /* \"#utility.yul\":1087:1093   */\n      dup2\n        /* \"#utility.yul\":1075:1085   */\n      dup2\n        /* \"#utility.yul\":1072:1094   */\n      lt\n        /* \"#utility.yul\":1051:1069   */\n      0xffffffffffffffff\n        /* \"#utility.yul\":1039:1049   */\n      dup3\n        /* \"#utility.yul\":1036:1070   */\n      gt\n        /* \"#utility.yul\":1033:1095   */\n      or\n        /* \"#utility.yul\":1030:1118   */\n      iszero\n      tag_144\n      jumpi\n        /* \"#utility.yul\":1098:1116   */\n      tag_145\n      tag_87\n      jump\t// in\n    tag_145:\n        /* \"#utility.yul\":1030:1118   */\n    tag_144:\n        /* \"#utility.yul\":1138:1148   */\n      dup1\n        /* \"#utility.yul\":1134:1136   */\n      0x40\n        /* \"#utility.yul\":1127:1149   */\n      mstore\n        /* \"#utility.yul\":917:1155   */\n      pop\n        /* \"#utility.yul\":874:1155   */\n      pop\n      pop\n      jump\t// out\n        /* \"#utility.yul\":1161:1290   */\n    tag_89:\n        /* \"#utility.yul\":1195:1201   */\n      0x00\n        /* \"#utility.yul\":1222:1242   */\n      tag_147\n      tag_81\n      jump\t// in\n    tag_147:\n        /* \"#utility.yul\":1212:1242   */\n      swap1\n      pop\n        /* \"#utility.yul\":1251:1284   */\n      tag_148\n        /* \"#utility.yul\":1279:1283   */\n      dup3\n        /* \"#utility.yul\":1271:1277   */\n      dup3\n        /* \"#utility.yul\":1251:1284   */\n      tag_88\n      jump\t// in\n    tag_148:\n        /* \"#utility.yul\":1161:1290   */\n      swap2\n      swap1\n      pop\n      jump\t// out\n        /* \"#utility.yul\":1296:1604   */\n    tag_90:\n        /* \"#utility.yul\":1358:1362   */\n      0x00\n        /* \"#utility.yul\":1448:1466   */\n      0xffffffffffffffff\n        /* \"#utility.yul\":1440:1446   */\n      dup3\n        /* \"#utility.yul\":1437:1467   */\n      gt\n        /* \"#utility.yul\":1434:1490   */\n      iszero\n      tag_150\n      jumpi\n        /* \"#utility.yul\":1470:1488   */\n      tag_151\n      tag_87\n      jump\t// in\n    tag_151:\n        /* \"#utility.yul\":1434:1490   */\n    tag_150:\n        /* \"#utility.yul\":1508:1537   */\n      tag_152\n        /* \"#utility.yul\":1530:1536   */\n      dup3\n        /* \"#utility.yul\":1508:1537   */\n      tag_86\n      jump\t// in\n    tag_152:\n        /* \"#utility.yul\":1500:1537   */\n      swap1\n      pop\n        /* \"#utility.yul\":1592:1596   */\n      0x20\n        /* \"#utility.yul\":1586:1590   */\n      dup2\n        /* \"#utility.yul\":1582:1597   */\n      add\n        /* \"#utility.yul\":1574:1597   */\n      swap1\n      pop\n        /* \"#utility.yul\":1296:1604   */\n      swap2\n      swap1\n      pop\n      jump\t// out\n        /* \"#utility.yul\":1610:1758   */\n    tag_91:\n        /* \"#utility.yul\":1708:1714   */\n      dup3\n        /* \"#utility.yul\":1703:1706   */\n      dup2\n        /* \"#utility.yul\":1698:1701   */\n      dup4\n        /* \"#utility.yul\":1685:1715   */\n      calldatacopy\n        /* \"#utility.yul\":1749:1750   */\n      0x00\n        /* \"#utility.yul\":1740:1746   */\n      dup4\n        /* \"#utility.yul\":1735:1738   */\n      dup4\n        /* \"#utility.yul\":1731:1747   */\n      add\n        /* \"#utility.yul\":1724:1751   */\n      mstore\n        /* \"#utility.yul\":1610:1758   */\n      pop\n      pop\n      pop\n      jump\t// out\n        /* \"#utility.yul\":1764:2189   */\n    tag_92:\n        /* \"#utility.yul\":1842:1847   */\n      0x00\n        /* \"#utility.yul\":1867:1933   */\n      tag_155\n        /* \"#utility.yul\":1883:1932   */\n      tag_156\n        /* \"#utility.yul\":1925:1931   */\n      dup5\n        /* \"#utility.yul\":1883:1932   */\n      tag_90\n      jump\t// in\n    tag_156:\n        /* \"#utility.yul\":1867:1933   */\n      tag_89\n      jump\t// in\n    tag_155:\n        /* \"#utility.yul\":1858:1933   */\n      swap1\n      pop\n        /* \"#utility.yul\":1956:1962   */\n      dup3\n        /* \"#utility.yul\":1949:1954   */\n      dup2\n        /* \"#utility.yul\":1942:1963   */\n      mstore\n        /* \"#utility.yul\":1994:1998   */\n      0x20\n        /* \"#utility.yul\":1987:1992   */\n      dup2\n        /* \"#utility.yul\":1983:1999   */\n      add\n        /* \"#utility.yul\":2032:2035   */\n      dup5\n        /* \"#utility.yul\":2023:2029   */\n      dup5\n        /* \"#utility.yul\":2018:2021   */\n      dup5\n        /* \"#utility.yul\":2014:2030   */\n      add\n        /* \"#utility.yul\":2011:2036   */\n      gt\n        /* \"#utility.yul\":2008:2120   */\n      iszero\n      tag_157\n      jumpi\n        /* \"#utility.yul\":2039:2118   */\n      tag_158\n      tag_85\n      jump\t// in\n    tag_158:\n        /* \"#utility.yul\":2008:2120   */\n    tag_157:\n        /* \"#utility.yul\":2129:2183   */\n      tag_159\n        /* \"#utility.yul\":2176:2182   */\n      dup5\n        /* \"#utility.yul\":2171:2174   */\n      dup3\n        /* \"#utility.yul\":2166:2169   */\n      dup6\n        /* \"#utility.yul\":2129:2183   */\n      tag_91\n      jump\t// in\n    tag_159:\n        /* \"#utility.yul\":1848:2189   */\n      pop\n        /* \"#utility.yul\":1764:2189   */\n      swap4\n      swap3\n      pop\n      pop\n      pop\n      jump\t// out\n        /* \"#utility.yul\":2209:2549   */\n    tag_93:\n        /* \"#utility.yul\":2265:2270   */\n      0x00\n        /* \"#utility.yul\":2314:2317   */\n      dup3\n        /* \"#utility.yul\":2307:2311   */\n      0x1f\n        /* \"#utility.yul\":2299:2305   */\n      dup4\n        /* \"#utility.yul\":2295:2312   */\n      add\n        /* \"#utility.yul\":2291:2318   */\n      slt\n        /* \"#utility.yul\":2281:2403   */\n      tag_161\n      jumpi\n        /* \"#utility.yul\":2322:2401   */\n      tag_162\n      tag_84\n      jump\t// in\n    tag_162:\n        /* \"#utility.yul\":2281:2403   */\n    tag_161:\n        /* \"#utility.yul\":2439:2445   */\n      dup2\n        /* \"#utility.yul\":2426:2446   */\n      calldataload\n        /* \"#utility.yul\":2464:2543   */\n      tag_163\n        /* \"#utility.yul\":2539:2542   */\n      dup5\n        /* \"#utility.yul\":2531:2537   */\n      dup3\n        /* \"#utility.yul\":2524:2528   */\n      0x20\n        /* \"#utility.yul\":2516:2522   */\n      dup7\n        /* \"#utility.yul\":2512:2529   */\n      add\n        /* \"#utility.yul\":2464:2543   */\n      tag_92\n      jump\t// in\n    tag_163:\n        /* \"#utility.yul\":2455:2543   */\n      swap2\n      pop\n        /* \"#utility.yul\":2271:2549   */\n      pop\n        /* \"#utility.yul\":2209:2549   */\n      swap3\n      swap2\n      pop\n      pop\n      jump\t// out\n        /* \"#utility.yul\":2555:2632   */\n    tag_94:\n        /* \"#utility.yul\":2592:2599   */\n      0x00\n        /* \"#utility.yul\":2621:2626   */\n      dup2\n        /* \"#utility.yul\":2610:2626   */\n      swap1\n      pop\n        /* \"#utility.yul\":2555:2632   */\n      swap2\n      swap1\n      pop\n      jump\t// out\n        /* \"#utility.yul\":2638:2760   */\n    tag_95:\n        /* \"#utility.yul\":2711:2735   */\n      tag_166\n        /* \"#utility.yul\":2729:2734   */\n      dup2\n        /* \"#utility.yul\":2711:2735   */\n      tag_94\n      jump\t// in\n    tag_166:\n        /* \"#utility.yul\":2704:2709   */\n      dup2\n        /* \"#utility.yul\":2701:2736   */\n      eq\n        /* \"#utility.yul\":2691:2754   */\n      tag_167\n      jumpi\n        /* \"#utility.yul\":2750:2751   */\n      0x00\n        /* \"#utility.yul\":2747:2748   */\n      dup1\n        /* \"#utility.yul\":2740:2752   */\n      revert\n        /* \"#utility.yul\":2691:2754   */\n    tag_167:\n        /* \"#utility.yul\":2638:2760   */\n      pop\n      jump\t// out\n        /* \"#utility.yul\":2766:2905   */\n    tag_96:\n        /* \"#utility.yul\":2812:2817   */\n      0x00\n        /* \"#utility.yul\":2850:2856   */\n      dup2\n        /* \"#utility.yul\":2837:2857   */\n      calldataload\n        /* \"#utility.yul\":2828:2857   */\n      swap1\n      pop\n        /* \"#utility.yul\":2866:2899   */\n      tag_169\n        /* \"#utility.yul\":2893:2898   */\n      dup2\n        /* \"#utility.yul\":2866:2899   */\n      tag_95\n      jump\t// in\n    tag_169:\n        /* \"#utility.yul\":2766:2905   */\n      swap3\n      swap2\n      pop\n      pop\n      jump\t// out\n        /* \"#utility.yul\":2911:3710   */\n    tag_11:\n        /* \"#utility.yul\":2998:3004   */\n      0x00\n        /* \"#utility.yul\":3006:3012   */\n      dup1\n        /* \"#utility.yul\":3014:3020   */\n      0x00\n        /* \"#utility.yul\":3063:3065   */\n      0x60\n        /* \"#utility.yul\":3051:3060   */\n      dup5\n        /* \"#utility.yul\":3042:3049   */\n      dup7\n        /* \"#utility.yul\":3038:3061   */\n      sub\n        /* \"#utility.yul\":3034:3066   */\n      slt\n        /* \"#utility.yul\":3031:3150   */\n      iszero\n      tag_171\n      jumpi\n        /* \"#utility.yul\":3069:3148   */\n      tag_172\n      tag_82\n      jump\t// in\n    tag_172:\n        /* \"#utility.yul\":3031:3150   */\n    tag_171:\n        /* \"#utility.yul\":3217:3218   */\n      0x00\n        /* \"#utility.yul\":3206:3215   */\n      dup5\n        /* \"#utility.yul\":3202:3219   */\n      add\n        /* \"#utility.yul\":3189:3220   */\n      calldataload\n        /* \"#utility.yul\":3247:3265   */\n      0xffffffffffffffff\n        /* \"#utility.yul\":3239:3245   */\n      dup2\n        /* \"#utility.yul\":3236:3266   */\n      gt\n        /* \"#utility.yul\":3233:3350   */\n      iszero\n      tag_173\n      jumpi\n        /* \"#utility.yul\":3269:3348   */\n      tag_174\n      tag_83\n      jump\t// in\n    tag_174:\n        /* \"#utility.yul\":3233:3350   */\n    tag_173:\n        /* \"#utility.yul\":3374:3437   */\n      tag_175\n        /* \"#utility.yul\":3429:3436   */\n      dup7\n        /* \"#utility.yul\":3420:3426   */\n      dup3\n        /* \"#utility.yul\":3409:3418   */\n      dup8\n        /* \"#utility.yul\":3405:3427   */\n      add\n        /* \"#utility.yul\":3374:3437   */\n      tag_93\n      jump\t// in\n    tag_175:\n        /* \"#utility.yul\":3364:3437   */\n      swap4\n      pop\n        /* \"#utility.yul\":3160:3447   */\n      pop\n        /* \"#utility.yul\":3486:3488   */\n      0x20\n        /* \"#utility.yul\":3512:3565   */\n      tag_176\n        /* \"#utility.yul\":3557:3564   */\n      dup7\n        /* \"#utility.yul\":3548:3554   */\n      dup3\n        /* \"#utility.yul\":3537:3546   */\n      dup8\n        /* \"#utility.yul\":3533:3555   */\n      add\n        /* \"#utility.yul\":3512:3565   */\n      tag_96\n      jump\t// in\n    tag_176:\n        /* \"#utility.yul\":3502:3565   */\n      swap3\n      pop\n        /* \"#utility.yul\":3457:3575   */\n      pop\n        /* \"#utility.yul\":3614:3616   */\n      0x40\n        /* \"#utility.yul\":3640:3693   */\n      tag_177\n        /* \"#utility.yul\":3685:3692   */\n      dup7\n        /* \"#utility.yul\":3676:3682   */\n      dup3\n        /* \"#utility.yul\":3665:3674   */\n      dup8\n        /* \"#utility.yul\":3661:3683   */\n      add\n        /* \"#utility.yul\":3640:3693   */\n      tag_96\n      jump\t// in\n    tag_177:\n        /* \"#utility.yul\":3630:3693   */\n      swap2\n      pop\n        /* \"#utility.yul\":3585:3703   */\n      pop\n        /* \"#utility.yul\":2911:3710   */\n      swap3\n      pop\n      swap3\n      pop\n      swap3\n      jump\t// out\n        /* \"#utility.yul\":3716:4045   */\n    tag_19:\n        /* \"#utility.yul\":3775:3781   */\n      0x00\n        /* \"#utility.yul\":3824:3826   */\n      0x20\n        /* \"#utility.yul\":3812:3821   */\n      dup3\n        /* \"#utility.yul\":3803:3810   */\n      dup5\n        /* \"#utility.yul\":3799:3822   */\n      sub\n        /* \"#utility.yul\":3795:3827   */\n      slt\n        /* \"#utility.yul\":3792:3911   */\n      iszero\n      tag_179\n      jumpi\n        /* \"#utility.yul\":3830:3909   */\n      tag_180\n      tag_82\n      jump\t// in\n    tag_180:\n        /* \"#utility.yul\":3792:3911   */\n    tag_179:\n        /* \"#utility.yul\":3950:3951   */\n      0x00\n        /* \"#utility.yul\":3975:4028   */\n      tag_181\n        /* \"#utility.yul\":4020:4027   */\n      dup5\n        /* \"#utility.yul\":4011:4017   */\n      dup3\n        /* \"#utility.yul\":4000:4009   */\n      dup6\n        /* \"#utility.yul\":3996:4018   */\n      add\n        /* \"#utility.yul\":3975:4028   */\n      tag_96\n      jump\t// in\n    tag_181:\n        /* \"#utility.yul\":3965:4028   */\n      swap2\n      pop\n        /* \"#utility.yul\":3921:4038   */\n      pop\n        /* \"#utility.yul\":3716:4045   */\n      swap3\n      swap2\n      pop\n      pop\n      jump\t// out\n        /* \"#utility.yul\":4051:4169   */\n    tag_97:\n        /* \"#utility.yul\":4138:4162   */\n      tag_183\n        /* \"#utility.yul\":4156:4161   */\n      dup2\n        /* \"#utility.yul\":4138:4162   */\n      tag_94\n      jump\t// in\n    tag_183:\n        /* \"#utility.yul\":4133:4136   */\n      dup3\n        /* \"#utility.yul\":4126:4163   */\n      mstore\n        /* \"#utility.yul\":4051:4169   */\n      pop\n      pop\n      jump\t// out\n        /* \"#utility.yul\":4175:4274   */\n    tag_98:\n        /* \"#utility.yul\":4227:4233   */\n      0x00\n        /* \"#utility.yul\":4261:4266   */\n      dup2\n        /* \"#utility.yul\":4255:4267   */\n      mload\n        /* \"#utility.yul\":4245:4267   */\n      swap1\n      pop\n        /* \"#utility.yul\":4175:4274   */\n      swap2\n      swap1\n      pop\n      jump\t// out\n        /* \"#utility.yul\":4280:4449   */\n    tag_99:\n        /* \"#utility.yul\":4364:4375   */\n      0x00\n        /* \"#utility.yul\":4398:4404   */\n      dup3\n        /* \"#utility.yul\":4393:4396   */\n      dup3\n        /* \"#utility.yul\":4386:4405   */\n      mstore\n        /* \"#utility.yul\":4438:4442   */\n      0x20\n        /* \"#utility.yul\":4433:4436   */\n      dup3\n        /* \"#utility.yul\":4429:4443   */\n      add\n        /* \"#utility.yul\":4414:4443   */\n      swap1\n      pop\n        /* \"#utility.yul\":4280:4449   */\n      swap3\n      swap2\n      pop\n      pop\n      jump\t// out\n        /* \"#utility.yul\":4455:4594   */\n    tag_100:\n        /* \"#utility.yul\":4544:4550   */\n      dup3\n        /* \"#utility.yul\":4539:4542   */\n      dup2\n        /* \"#utility.yul\":4534:4537   */\n      dup4\n        /* \"#utility.yul\":4528:4551   */\n      mcopy\n        /* \"#utility.yul\":4585:4586   */\n      0x00\n        /* \"#utility.yul\":4576:4582   */\n      dup4\n        /* \"#utility.yul\":4571:4574   */\n      dup4\n        /* \"#utility.yul\":4567:4583   */\n      add\n        /* \"#utility.yul\":4560:4587   */\n      mstore\n        /* \"#utility.yul\":4455:4594   */\n      pop\n      pop\n      pop\n      jump\t// out\n        /* \"#utility.yul\":4600:4977   */\n    tag_101:\n        /* \"#utility.yul\":4688:4691   */\n      0x00\n        /* \"#utility.yul\":4716:4755   */\n      tag_188\n        /* \"#utility.yul\":4749:4754   */\n      dup3\n        /* \"#utility.yul\":4716:4755   */\n      tag_98\n      jump\t// in\n    tag_188:\n        /* \"#utility.yul\":4771:4842   */\n      tag_189\n        /* \"#utility.yul\":4835:4841   */\n      dup2\n        /* \"#utility.yul\":4830:4833   */\n      dup6\n        /* \"#utility.yul\":4771:4842   */\n      tag_99\n      jump\t// in\n    tag_189:\n        /* \"#utility.yul\":4764:4842   */\n      swap4\n      pop\n        /* \"#utility.yul\":4851:4916   */\n      tag_190\n        /* \"#utility.yul\":4909:4915   */\n      dup2\n        /* \"#utility.yul\":4904:4907   */\n      dup6\n        /* \"#utility.yul\":4897:4901   */\n      0x20\n        /* \"#utility.yul\":4890:4895   */\n      dup7\n        /* \"#utility.yul\":4886:4902   */\n      add\n        /* \"#utility.yul\":4851:4916   */\n      tag_100\n      jump\t// in\n    tag_190:\n        /* \"#utility.yul\":4941:4970   */\n      tag_191\n        /* \"#utility.yul\":4963:4969   */\n      dup2\n        /* \"#utility.yul\":4941:4970   */\n      tag_86\n      jump\t// in\n    tag_191:\n        /* \"#utility.yul\":4936:4939   */\n      dup5\n        /* \"#utility.yul\":4932:4971   */\n      add\n        /* \"#utility.yul\":4925:4971   */\n      swap2\n      pop\n        /* \"#utility.yul\":4692:4977   */\n      pop\n        /* \"#utility.yul\":4600:4977   */\n      swap3\n      swap2\n      pop\n      pop\n      jump\t// out\n        /* \"#utility.yul\":4983:5627   */\n    tag_22:\n        /* \"#utility.yul\":5180:5184   */\n      0x00\n        /* \"#utility.yul\":5218:5221   */\n      0x80\n        /* \"#utility.yul\":5207:5216   */\n      dup3\n        /* \"#utility.yul\":5203:5222   */\n      add\n        /* \"#utility.yul\":5195:5222   */\n      swap1\n      pop\n        /* \"#utility.yul\":5232:5303   */\n      tag_193\n        /* \"#utility.yul\":5300:5301   */\n      0x00\n        /* \"#utility.yul\":5289:5298   */\n      dup4\n        /* \"#utility.yul\":5285:5302   */\n      add\n        /* \"#utility.yul\":5276:5282   */\n      dup8\n        /* \"#utility.yul\":5232:5303   */\n      tag_97\n      jump\t// in\n    tag_193:\n        /* \"#utility.yul\":5350:5359   */\n      dup2\n        /* \"#utility.yul\":5344:5348   */\n      dup2\n        /* \"#utility.yul\":5340:5360   */\n      sub\n        /* \"#utility.yul\":5335:5337   */\n      0x20\n        /* \"#utility.yul\":5324:5333   */\n      dup4\n        /* \"#utility.yul\":5320:5338   */\n      add\n        /* \"#utility.yul\":5313:5361   */\n      mstore\n        /* \"#utility.yul\":5378:5456   */\n      tag_194\n        /* \"#utility.yul\":5451:5455   */\n      dup2\n        /* \"#utility.yul\":5442:5448   */\n      dup7\n        /* \"#utility.yul\":5378:5456   */\n      tag_101\n      jump\t// in\n    tag_194:\n        /* \"#utility.yul\":5370:5456   */\n      swap1\n      pop\n        /* \"#utility.yul\":5466:5538   */\n      tag_195\n        /* \"#utility.yul\":5534:5536   */\n      0x40\n        /* \"#utility.yul\":5523:5532   */\n      dup4\n        /* \"#utility.yul\":5519:5537   */\n      add\n        /* \"#utility.yul\":5510:5516   */\n      dup6\n        /* \"#utility.yul\":5466:5538   */\n      tag_97\n      jump\t// in\n    tag_195:\n        /* \"#utility.yul\":5548:5620   */\n      tag_196\n        /* \"#utility.yul\":5616:5618   */\n      0x60\n        /* \"#utility.yul\":5605:5614   */\n      dup4\n        /* \"#utility.yul\":5601:5619   */\n      add\n        /* \"#utility.yul\":5592:5598   */\n      dup5\n        /* \"#utility.yul\":5548:5620   */\n      tag_97\n      jump\t// in\n    tag_196:\n        /* \"#utility.yul\":4983:5627   */\n      swap6\n      swap5\n      pop\n      pop\n      pop\n      pop\n      pop\n      jump\t// out\n        /* \"#utility.yul\":5633:5759   */\n    tag_102:\n        /* \"#utility.yul\":5670:5677   */\n      0x00\n        /* \"#utility.yul\":5710:5752   */\n      0xffffffffffffffffffffffffffffffffffffffff\n        /* \"#utility.yul\":5703:5708   */\n      dup3\n        /* \"#utility.yul\":5699:5753   */\n      and\n        /* \"#utility.yul\":5688:5753   */\n      swap1\n      pop\n        /* \"#utility.yul\":5633:5759   */\n      swap2\n      swap1\n      pop\n      jump\t// out\n        /* \"#utility.yul\":5765:5861   */\n    tag_103:\n        /* \"#utility.yul\":5802:5809   */\n      0x00\n        /* \"#utility.yul\":5831:5855   */\n      tag_199\n        /* \"#utility.yul\":5849:5854   */\n      dup3\n        /* \"#utility.yul\":5831:5855   */\n      tag_102\n      jump\t// in\n    tag_199:\n        /* \"#utility.yul\":5820:5855   */\n      swap1\n      pop\n        /* \"#utility.yul\":5765:5861   */\n      swap2\n      swap1\n      pop\n      jump\t// out\n        /* \"#utility.yul\":5867:5985   */\n    tag_104:\n        /* \"#utility.yul\":5954:5978   */\n      tag_201\n        /* \"#utility.yul\":5972:5977   */\n      dup2\n        /* \"#utility.yul\":5954:5978   */\n      tag_103\n      jump\t// in\n    tag_201:\n        /* \"#utility.yul\":5949:5952   */\n      dup3\n        /* \"#utility.yul\":5942:5979   */\n      mstore\n        /* \"#utility.yul\":5867:5985   */\n      pop\n      pop\n      jump\t// out\n        /* \"#utility.yul\":5991:6213   */\n    tag_27:\n        /* \"#utility.yul\":6084:6088   */\n      0x00\n        /* \"#utility.yul\":6122:6124   */\n      0x20\n        /* \"#utility.yul\":6111:6120   */\n      dup3\n        /* \"#utility.yul\":6107:6125   */\n      add\n        /* \"#utility.yul\":6099:6125   */\n      swap1\n      pop\n        /* \"#utility.yul\":6135:6206   */\n      tag_203\n        /* \"#utility.yul\":6203:6204   */\n      0x00\n        /* \"#utility.yul\":6192:6201   */\n      dup4\n        /* \"#utility.yul\":6188:6205   */\n      add\n        /* \"#utility.yul\":6179:6185   */\n      dup5\n        /* \"#utility.yul\":6135:6206   */\n      tag_104\n      jump\t// in\n    tag_203:\n        /* \"#utility.yul\":5991:6213   */\n      swap3\n      swap2\n      pop\n      pop\n      jump\t// out\n        /* \"#utility.yul\":6219:6693   */\n    tag_30:\n        /* \"#utility.yul\":6287:6293   */\n      0x00\n        /* \"#utility.yul\":6295:6301   */\n      dup1\n        /* \"#utility.yul\":6344:6346   */\n      0x40\n        /* \"#utility.yul\":6332:6341   */\n      dup4\n        /* \"#utility.yul\":6323:6330   */\n      dup6\n        /* \"#utility.yul\":6319:6342   */\n      sub\n        /* \"#utility.yul\":6315:6347   */\n      slt\n        /* \"#utility.yul\":6312:6431   */\n      iszero\n      tag_205\n      jumpi\n        /* \"#utility.yul\":6350:6429   */\n      tag_206\n      tag_82\n      jump\t// in\n    tag_206:\n        /* \"#utility.yul\":6312:6431   */\n    tag_205:\n        /* \"#utility.yul\":6470:6471   */\n      0x00\n        /* \"#utility.yul\":6495:6548   */\n      tag_207\n        /* \"#utility.yul\":6540:6547   */\n      dup6\n        /* \"#utility.yul\":6531:6537   */\n      dup3\n        /* \"#utility.yul\":6520:6529   */\n      dup7\n        /* \"#utility.yul\":6516:6538   */\n      add\n        /* \"#utility.yul\":6495:6548   */\n      tag_96\n      jump\t// in\n    tag_207:\n        /* \"#utility.yul\":6485:6548   */\n      swap3\n      pop\n        /* \"#utility.yul\":6441:6558   */\n      pop\n        /* \"#utility.yul\":6597:6599   */\n      0x20\n        /* \"#utility.yul\":6623:6676   */\n      tag_208\n        /* \"#utility.yul\":6668:6675   */\n      dup6\n        /* \"#utility.yul\":6659:6665   */\n      dup3\n        /* \"#utility.yul\":6648:6657   */\n      dup7\n        /* \"#utility.yul\":6644:6666   */\n      add\n        /* \"#utility.yul\":6623:6676   */\n      tag_96\n      jump\t// in\n    tag_208:\n        /* \"#utility.yul\":6613:6676   */\n      swap2\n      pop\n        /* \"#utility.yul\":6568:6686   */\n      pop\n        /* \"#utility.yul\":6219:6693   */\n      swap3\n      pop\n      swap3\n      swap1\n      pop\n      jump\t// out\n        /* \"#utility.yul\":6699:6921   */\n    tag_36:\n        /* \"#utility.yul\":6792:6796   */\n      0x00\n        /* \"#utility.yul\":6830:6832   */\n      0x20\n        /* \"#utility.yul\":6819:6828   */\n      dup3\n        /* \"#utility.yul\":6815:6833   */\n      add\n        /* \"#utility.yul\":6807:6833   */\n      swap1\n      pop\n        /* \"#utility.yul\":6843:6914   */\n      tag_210\n        /* \"#utility.yul\":6911:6912   */\n      0x00\n        /* \"#utility.yul\":6900:6909   */\n      dup4\n        /* \"#utility.yul\":6896:6913   */\n      add\n        /* \"#utility.yul\":6887:6893   */\n      dup5\n        /* \"#utility.yul\":6843:6914   */\n      tag_97\n      jump\t// in\n    tag_210:\n        /* \"#utility.yul\":6699:6921   */\n      swap3\n      swap2\n      pop\n      pop\n      jump\t// out\n        /* \"#utility.yul\":6927:7148   */\n    tag_105:\n        /* \"#utility.yul\":7067:7101   */\n      0x4f6e6c79206f776e65722063616e20706572666f726d20746869732061637469\n        /* \"#utility.yul\":7063:7064   */\n      0x00\n        /* \"#utility.yul\":7055:7061   */\n      dup3\n        /* \"#utility.yul\":7051:7065   */\n      add\n        /* \"#utility.yul\":7044:7102   */\n      mstore\n        /* \"#utility.yul\":7136:7140   */\n      0x6f6e000000000000000000000000000000000000000000000000000000000000\n        /* \"#utility.yul\":7131:7133   */\n      0x20\n        /* \"#utility.yul\":7123:7129   */\n      dup3\n        /* \"#utility.yul\":7119:7134   */\n      add\n        /* \"#utility.yul\":7112:7141   */\n      mstore\n        /* \"#utility.yul\":6927:7148   */\n      pop\n      jump\t// out\n        /* \"#utility.yul\":7154:7520   */\n    tag_106:\n        /* \"#utility.yul\":7296:7299   */\n      0x00\n        /* \"#utility.yul\":7317:7384   */\n      tag_213\n        /* \"#utility.yul\":7381:7383   */\n      0x22\n        /* \"#utility.yul\":7376:7379   */\n      dup4\n        /* \"#utility.yul\":7317:7384   */\n      tag_99\n      jump\t// in\n    tag_213:\n        /* \"#utility.yul\":7310:7384   */\n      swap2\n      pop\n        /* \"#utility.yul\":7393:7486   */\n      tag_214\n        /* \"#utility.yul\":7482:7485   */\n      dup3\n        /* \"#utility.yul\":7393:7486   */\n      tag_105\n      jump\t// in\n    tag_214:\n        /* \"#utility.yul\":7511:7513   */\n      0x40\n        /* \"#utility.yul\":7506:7509   */\n      dup3\n        /* \"#utility.yul\":7502:7514   */\n      add\n        /* \"#utility.yul\":7495:7514   */\n      swap1\n      pop\n        /* \"#utility.yul\":7154:7520   */\n      swap2\n      swap1\n      pop\n      jump\t// out\n        /* \"#utility.yul\":7526:7945   */\n    tag_40:\n        /* \"#utility.yul\":7692:7696   */\n      0x00\n        /* \"#utility.yul\":7730:7732   */\n      0x20\n        /* \"#utility.yul\":7719:7728   */\n      dup3\n        /* \"#utility.yul\":7715:7733   */\n      add\n        /* \"#utility.yul\":7707:7733   */\n      swap1\n      pop\n        /* \"#utility.yul\":7779:7788   */\n      dup2\n        /* \"#utility.yul\":7773:7777   */\n      dup2\n        /* \"#utility.yul\":7769:7789   */\n      sub\n        /* \"#utility.yul\":7765:7766   */\n      0x00\n        /* \"#utility.yul\":7754:7763   */\n      dup4\n        /* \"#utility.yul\":7750:7767   */\n      add\n        /* \"#utility.yul\":7743:7790   */\n      mstore\n        /* \"#utility.yul\":7807:7938   */\n      tag_216\n        /* \"#utility.yul\":7933:7937   */\n      dup2\n        /* \"#utility.yul\":7807:7938   */\n      tag_106\n      jump\t// in\n    tag_216:\n        /* \"#utility.yul\":7799:7938   */\n      swap1\n      pop\n        /* \"#utility.yul\":7526:7945   */\n      swap2\n      swap1\n      pop\n      jump\t// out\n        /* \"#utility.yul\":7951:8132   */\n    tag_107:\n        /* \"#utility.yul\":8091:8124   */\n      0x5072696365206d7573742062652067726561746572207468616e207a65726f00\n        /* \"#utility.yul\":8087:8088   */\n      0x00\n        /* \"#utility.yul\":8079:8085   */\n      dup3\n        /* \"#utility.yul\":8075:8089   */\n      add\n        /* \"#utility.yul\":8068:8125   */\n      mstore\n        /* \"#utility.yul\":7951:8132   */\n      pop\n      jump\t// out\n        /* \"#utility.yul\":8138:8504   */\n    tag_108:\n        /* \"#utility.yul\":8280:8283   */\n      0x00\n        /* \"#utility.yul\":8301:8368   */\n      tag_219\n        /* \"#utility.yul\":8365:8367   */\n      0x1f\n        /* \"#utility.yul\":8360:8363   */\n      dup4\n        /* \"#utility.yul\":8301:8368   */\n      tag_99\n      jump\t// in\n    tag_219:\n        /* \"#utility.yul\":8294:8368   */\n      swap2\n      pop\n        /* \"#utility.yul\":8377:8470   */\n      tag_220\n        /* \"#utility.yul\":8466:8469   */\n      dup3\n        /* \"#utility.yul\":8377:8470   */\n      tag_107\n      jump\t// in\n    tag_220:\n        /* \"#utility.yul\":8495:8497   */\n      0x20\n        /* \"#utility.yul\":8490:8493   */\n      dup3\n        /* \"#utility.yul\":8486:8498   */\n      add\n        /* \"#utility.yul\":8479:8498   */\n      swap1\n      pop\n        /* \"#utility.yul\":8138:8504   */\n      swap2\n      swap1\n      pop\n      jump\t// out\n        /* \"#utility.yul\":8510:8929   */\n    tag_44:\n        /* \"#utility.yul\":8676:8680   */\n      0x00\n        /* \"#utility.yul\":8714:8716   */\n      0x20\n        /* \"#utility.yul\":8703:8712   */\n      dup3\n        /* \"#utility.yul\":8699:8717   */\n      add\n        /* \"#utility.yul\":8691:8717   */\n      swap1\n      pop\n        /* \"#utility.yul\":8763:8772   */\n      dup2\n        /* \"#utility.yul\":8757:8761   */\n      dup2\n        /* \"#utility.yul\":8753:8773   */\n      sub\n        /* \"#utility.yul\":8749:8750   */\n      0x00\n        /* \"#utility.yul\":8738:8747   */\n      dup4\n        /* \"#utility.yul\":8734:8751   */\n      add\n        /* \"#utility.yul\":8727:8774   */\n      mstore\n        /* \"#utility.yul\":8791:8922   */\n      tag_222\n        /* \"#utility.yul\":8917:8921   */\n      dup2\n        /* \"#utility.yul\":8791:8922   */\n      tag_108\n      jump\t// in\n    tag_222:\n        /* \"#utility.yul\":8783:8922   */\n      swap1\n      pop\n        /* \"#utility.yul\":8510:8929   */\n      swap2\n      swap1\n      pop\n      jump\t// out\n        /* \"#utility.yul\":8935:9116   */\n    tag_109:\n        /* \"#utility.yul\":9075:9108   */\n      0x53746f636b206d7573742062652067726561746572207468616e207a65726f00\n        /* \"#utility.yul\":9071:9072   */\n      0x00\n        /* \"#utility.yul\":9063:9069   */\n      dup3\n        /* \"#utility.yul\":9059:9073   */\n      add\n        /* \"#utility.yul\":9052:9109   */\n      mstore\n        /* \"#utility.yul\":8935:9116   */\n      pop\n      jump\t// out\n        /* \"#utility.yul\":9122:9488   */\n    tag_110:\n        /* \"#utility.yul\":9264:9267   */\n      0x00\n        /* \"#utility.yul\":9285:9352   */\n      tag_225\n        /* \"#utility.yul\":9349:9351   */\n      0x1f\n        /* \"#utility.yul\":9344:9347   */\n      dup4\n        /* \"#utility.yul\":9285:9352   */\n      tag_99\n      jump\t// in\n    tag_225:\n        /* \"#utility.yul\":9278:9352   */\n      swap2\n      pop\n        /* \"#utility.yul\":9361:9454   */\n      tag_226\n        /* \"#utility.yul\":9450:9453   */\n      dup3\n        /* \"#utility.yul\":9361:9454   */\n      tag_109\n      jump\t// in\n    tag_226:\n        /* \"#utility.yul\":9479:9481   */\n      0x20\n        /* \"#utility.yul\":9474:9477   */\n      dup3\n        /* \"#utility.yul\":9470:9482   */\n      add\n        /* \"#utility.yul\":9463:9482   */\n      swap1\n      pop\n        /* \"#utility.yul\":9122:9488   */\n      swap2\n      swap1\n      pop\n      jump\t// out\n        /* \"#utility.yul\":9494:9913   */\n    tag_47:\n        /* \"#utility.yul\":9660:9664   */\n      0x00\n        /* \"#utility.yul\":9698:9700   */\n      0x20\n        /* \"#utility.yul\":9687:9696   */\n      dup3\n        /* \"#utility.yul\":9683:9701   */\n      add\n        /* \"#utility.yul\":9675:9701   */\n      swap1\n      pop\n        /* \"#utility.yul\":9747:9756   */\n      dup2\n        /* \"#utility.yul\":9741:9745   */\n      dup2\n        /* \"#utility.yul\":9737:9757   */\n      sub\n        /* \"#utility.yul\":9733:9734   */\n      0x00\n        /* \"#utility.yul\":9722:9731   */\n      dup4\n        /* \"#utility.yul\":9718:9735   */\n      add\n        /* \"#utility.yul\":9711:9758   */\n      mstore\n        /* \"#utility.yul\":9775:9906   */\n      tag_228\n        /* \"#utility.yul\":9901:9905   */\n      dup2\n        /* \"#utility.yul\":9775:9906   */\n      tag_110\n      jump\t// in\n    tag_228:\n        /* \"#utility.yul\":9767:9906   */\n      swap1\n      pop\n        /* \"#utility.yul\":9494:9913   */\n      swap2\n      swap1\n      pop\n      jump\t// out\n        /* \"#utility.yul\":9919:10099   */\n    tag_111:\n        /* \"#utility.yul\":9967:10044   */\n      0x4e487b7100000000000000000000000000000000000000000000000000000000\n        /* \"#utility.yul\":9964:9965   */\n      0x00\n        /* \"#utility.yul\":9957:10045   */\n      mstore\n        /* \"#utility.yul\":10064:10068   */\n      0x11\n        /* \"#utility.yul\":10061:10062   */\n      0x04\n        /* \"#utility.yul\":10054:10069   */\n      mstore\n        /* \"#utility.yul\":10088:10092   */\n      0x24\n        /* \"#utility.yul\":10085:10086   */\n      0x00\n        /* \"#utility.yul\":10078:10093   */\n      revert\n        /* \"#utility.yul\":10105:10338   */\n    tag_49:\n        /* \"#utility.yul\":10144:10147   */\n      0x00\n        /* \"#utility.yul\":10167:10191   */\n      tag_231\n        /* \"#utility.yul\":10185:10190   */\n      dup3\n        /* \"#utility.yul\":10167:10191   */\n      tag_94\n      jump\t// in\n    tag_231:\n        /* \"#utility.yul\":10158:10191   */\n      swap2\n      pop\n        /* \"#utility.yul\":10213:10279   */\n      0xffffffffffffffffffffffffffffffffffffffffffffffffffffffffffffffff\n        /* \"#utility.yul\":10206:10211   */\n      dup3\n        /* \"#utility.yul\":10203:10280   */\n      sub\n        /* \"#utility.yul\":10200:10303   */\n      tag_232\n      jumpi\n        /* \"#utility.yul\":10283:10301   */\n      tag_233\n      tag_111\n      jump\t// in\n    tag_233:\n        /* \"#utility.yul\":10200:10303   */\n    tag_232:\n        /* \"#utility.yul\":10330:10331   */\n      0x01\n        /* \"#utility.yul\":10323:10328   */\n      dup3\n        /* \"#utility.yul\":10319:10332   */\n      add\n        /* \"#utility.yul\":10312:10332   */\n      swap1\n      pop\n        /* \"#utility.yul\":10105:10338   */\n      swap2\n      swap1\n      pop\n      jump\t// out\n        /* \"#utility.yul\":10344:10524   */\n    tag_112:\n        /* \"#utility.yul\":10392:10469   */\n      0x4e487b7100000000000000000000000000000000000000000000000000000000\n        /* \"#utility.yul\":10389:10390   */\n      0x00\n        /* \"#utility.yul\":10382:10470   */\n      mstore\n        /* \"#utility.yul\":10489:10493   */\n      0x22\n        /* \"#utility.yul\":10486:10487   */\n      0x04\n        /* \"#utility.yul\":10479:10494   */\n      mstore\n        /* \"#utility.yul\":10513:10517   */\n      0x24\n        /* \"#utility.yul\":10510:10511   */\n      0x00\n        /* \"#utility.yul\":10503:10518   */\n      revert\n        /* \"#utility.yul\":10530:10850   */\n    tag_60:\n        /* \"#utility.yul\":10574:10580   */\n      0x00\n        /* \"#utility.yul\":10611:10612   */\n      0x02\n        /* \"#utility.yul\":10605:10609   */\n      dup3\n        /* \"#utility.yul\":10601:10613   */\n      div\n        /* \"#utility.yul\":10591:10613   */\n      swap1\n      pop\n        /* \"#utility.yul\":10658:10659   */\n      0x01\n        /* \"#utility.yul\":10652:10656   */\n      dup3\n        /* \"#utility.yul\":10648:10660   */\n      and\n        /* \"#utility.yul\":10679:10697   */\n      dup1\n        /* \"#utility.yul\":10669:10750   */\n      tag_236\n      jumpi\n        /* \"#utility.yul\":10735:10739   */\n      0x7f\n        /* \"#utility.yul\":10727:10733   */\n      dup3\n        /* \"#utility.yul\":10723:10740   */\n      and\n        /* \"#utility.yul\":10713:10740   */\n      swap2\n      pop\n        /* \"#utility.yul\":10669:10750   */\n    tag_236:\n        /* \"#utility.yul\":10797:10799   */\n      0x20\n        /* \"#utility.yul\":10789:10795   */\n      dup3\n        /* \"#utility.yul\":10786:10800   */\n      lt\n        /* \"#utility.yul\":10766:10784   */\n      dup2\n        /* \"#utility.yul\":10763:10801   */\n      sub\n        /* \"#utility.yul\":10760:10844   */\n      tag_237\n      jumpi\n        /* \"#utility.yul\":10816:10834   */\n      tag_238\n      tag_112\n      jump\t// in\n    tag_238:\n        /* \"#utility.yul\":10760:10844   */\n    tag_237:\n        /* \"#utility.yul\":10581:10850   */\n      pop\n        /* \"#utility.yul\":10530:10850   */\n      swap2\n      swap1\n      pop\n      jump\t// out\n        /* \"#utility.yul\":10856:10997   */\n    tag_113:\n        /* \"#utility.yul\":10905:10909   */\n      0x00\n        /* \"#utility.yul\":10928:10931   */\n      dup2\n        /* \"#utility.yul\":10920:10931   */\n      swap1\n      pop\n        /* \"#utility.yul\":10951:10954   */\n      dup2\n        /* \"#utility.yul\":10948:10949   */\n      0x00\n        /* \"#utility.yul\":10941:10955   */\n      mstore\n        /* \"#utility.yul\":10985:10989   */\n      0x20\n        /* \"#utility.yul\":10982:10983   */\n      0x00\n        /* \"#utility.yul\":10972:10990   */\n      keccak256\n        /* \"#utility.yul\":10964:10990   */\n      swap1\n      pop\n        /* \"#utility.yul\":10856:10997   */\n      swap2\n      swap1\n      pop\n      jump\t// out\n        /* \"#utility.yul\":11003:11096   */\n    tag_114:\n        /* \"#utility.yul\":11040:11046   */\n      0x00\n        /* \"#utility.yul\":11087:11089   */\n      0x20\n        /* \"#utility.yul\":11082:11084   */\n      0x1f\n        /* \"#utility.yul\":11075:11080   */\n      dup4\n        /* \"#utility.yul\":11071:11085   */\n      add\n        /* \"#utility.yul\":11067:11090   */\n      div\n        /* \"#utility.yul\":11057:11090   */\n      swap1\n      pop\n        /* \"#utility.yul\":11003:11096   */\n      swap2\n      swap1\n      pop\n      jump\t// out\n        /* \"#utility.yul\":11102:11209   */\n    tag_115:\n        /* \"#utility.yul\":11146:11154   */\n      0x00\n        /* \"#utility.yul\":11196:11201   */\n      dup3\n        /* \"#utility.yul\":11190:11194   */\n      dup3\n        /* \"#utility.yul\":11186:11202   */\n      shl\n        /* \"#utility.yul\":11165:11202   */\n      swap1\n      pop\n        /* \"#utility.yul\":11102:11209   */\n      swap3\n      swap2\n      pop\n      pop\n      jump\t// out\n        /* \"#utility.yul\":11215:11608   */\n    tag_116:\n        /* \"#utility.yul\":11284:11290   */\n      0x00\n        /* \"#utility.yul\":11334:11335   */\n      0x08\n        /* \"#utility.yul\":11322:11332   */\n      dup4\n        /* \"#utility.yul\":11318:11336   */\n      mul\n        /* \"#utility.yul\":11357:11454   */\n      tag_243\n        /* \"#utility.yul\":11387:11453   */\n      0xffffffffffffffffffffffffffffffffffffffffffffffffffffffffffffffff\n        /* \"#utility.yul\":11376:11385   */\n      dup3\n        /* \"#utility.yul\":11357:11454   */\n      tag_115\n      jump\t// in\n    tag_243:\n        /* \"#utility.yul\":11475:11514   */\n      tag_244\n        /* \"#utility.yul\":11505:11513   */\n      dup7\n        /* \"#utility.yul\":11494:11503   */\n      dup4\n        /* \"#utility.yul\":11475:11514   */\n      tag_115\n      jump\t// in\n    tag_244:\n        /* \"#utility.yul\":11463:11514   */\n      swap6\n      pop\n        /* \"#utility.yul\":11547:11551   */\n      dup1\n        /* \"#utility.yul\":11543:11552   */\n      not\n        /* \"#utility.yul\":11536:11541   */\n      dup5\n        /* \"#utility.yul\":11532:11553   */\n      and\n        /* \"#utility.yul\":11523:11553   */\n      swap4\n      pop\n        /* \"#utility.yul\":11596:11600   */\n      dup1\n        /* \"#utility.yul\":11586:11594   */\n      dup7\n        /* \"#utility.yul\":11582:11601   */\n      and\n        /* \"#utility.yul\":11575:11580   */\n      dup5\n        /* \"#utility.yul\":11572:11602   */\n      or\n        /* \"#utility.yul\":11562:11602   */\n      swap3\n      pop\n        /* \"#utility.yul\":11291:11608   */\n      pop\n      pop\n        /* \"#utility.yul\":11215:11608   */\n      swap4\n      swap3\n      pop\n      pop\n      pop\n      jump\t// out\n        /* \"#utility.yul\":11614:11674   */\n    tag_117:\n        /* \"#utility.yul\":11642:11645   */\n      0x00\n        /* \"#utility.yul\":11663:11668   */\n      dup2\n        /* \"#utility.yul\":11656:11668   */\n      swap1\n      pop\n        /* \"#utility.yul\":11614:11674   */\n      swap2\n      swap1\n      pop\n      jump\t// out\n        /* \"#utility.yul\":11680:11822   */\n    tag_118:\n        /* \"#utility.yul\":11730:11739   */\n      0x00\n        /* \"#utility.yul\":11763:11816   */\n      tag_247\n        /* \"#utility.yul\":11781:11815   */\n      tag_248\n        /* \"#utility.yul\":11790:11814   */\n      tag_249\n        /* \"#utility.yul\":11808:11813   */\n      dup5\n        /* \"#utility.yul\":11790:11814   */\n      tag_94\n      jump\t// in\n    tag_249:\n        /* \"#utility.yul\":11781:11815   */\n      tag_117\n      jump\t// in\n    tag_248:\n        /* \"#utility.yul\":11763:11816   */\n      tag_94\n      jump\t// in\n    tag_247:\n        /* \"#utility.yul\":11750:11816   */\n      swap1\n      pop\n        /* \"#utility.yul\":11680:11822   */\n      swap2\n      swap1\n      pop\n      jump\t// out\n        /* \"#utility.yul\":11828:11903   */\n    tag_119:\n        /* \"#utility.yul\":11871:11874   */\n      0x00\n        /* \"#utility.yul\":11892:11897   */\n      dup2\n        /* \"#utility.yul\":11885:11897   */\n      swap1\n      pop\n        /* \"#utility.yul\":11828:11903   */\n      swap2\n      swap1\n      pop\n      jump\t// out\n        /* \"#utility.yul\":11909:12178   */\n    tag_120:\n        /* \"#utility.yul\":12019:12058   */\n      tag_252\n        /* \"#utility.yul\":12050:12057   */\n      dup4\n        /* \"#utility.yul\":12019:12058   */\n      tag_118\n      jump\t// in\n    tag_252:\n        /* \"#utility.yul\":12080:12171   */\n      tag_253\n        /* \"#utility.yul\":12129:12170   */\n      tag_254\n        /* \"#utility.yul\":12153:12169   */\n      dup3\n        /* \"#utility.yul\":12129:12170   */\n      tag_119\n      jump\t// in\n    tag_254:\n        /* \"#utility.yul\":12121:12127   */\n      dup5\n        /* \"#utility.yul\":12114:12118   */\n      dup5\n        /* \"#utility.yul\":12108:12119   */\n      sload\n        /* \"#utility.yul\":12080:12171   */\n      tag_116\n      jump\t// in\n    tag_253:\n        /* \"#utility.yul\":12074:12078   */\n      dup3\n        /* \"#utility.yul\":12067:12172   */\n      sstore\n        /* \"#utility.yul\":11985:12178   */\n      pop\n        /* \"#utility.yul\":11909:12178   */\n      pop\n      pop\n      pop\n      jump\t// out\n        /* \"#utility.yul\":12184:12257   */\n    tag_121:\n        /* \"#utility.yul\":12229:12232   */\n      0x00\n        /* \"#utility.yul\":12184:12257   */\n      swap1\n      jump\t// out\n        /* \"#utility.yul\":12263:12452   */\n    tag_122:\n        /* \"#utility.yul\":12340:12372   */\n      tag_257\n      tag_121\n      jump\t// in\n    tag_257:\n        /* \"#utility.yul\":12381:12446   */\n      tag_258\n        /* \"#utility.yul\":12439:12445   */\n      dup2\n        /* \"#utility.yul\":12431:12437   */\n      dup5\n        /* \"#utility.yul\":12425:12429   */\n      dup5\n        /* \"#utility.yul\":12381:12446   */\n      tag_120\n      jump\t// in\n    tag_258:\n        /* \"#utility.yul\":12316:12452   */\n      pop\n        /* \"#utility.yul\":12263:12452   */\n      pop\n      pop\n      jump\t// out\n        /* \"#utility.yul\":12458:12644   */\n    tag_123:\n        /* \"#utility.yul\":12518:12638   */\n    tag_260:\n        /* \"#utility.yul\":12535:12538   */\n      dup2\n        /* \"#utility.yul\":12528:12533   */\n      dup2\n        /* \"#utility.yul\":12525:12539   */\n      lt\n        /* \"#utility.yul\":12518:12638   */\n      iszero\n      tag_262\n      jumpi\n        /* \"#utility.yul\":12589:12628   */\n      tag_263\n        /* \"#utility.yul\":12626:12627   */\n      0x00\n        /* \"#utility.yul\":12619:12624   */\n      dup3\n        /* \"#utility.yul\":12589:12628   */\n      tag_122\n      jump\t// in\n    tag_263:\n        /* \"#utility.yul\":12562:12563   */\n      0x01\n        /* \"#utility.yul\":12555:12560   */\n      dup2\n        /* \"#utility.yul\":12551:12564   */\n      add\n        /* \"#utility.yul\":12542:12564   */\n      swap1\n      pop\n        /* \"#utility.yul\":12518:12638   */\n      jump(tag_260)\n    tag_262:\n        /* \"#utility.yul\":12458:12644   */\n      pop\n      pop\n      jump\t// out\n        /* \"#utility.yul\":12650:13193   */\n    tag_124:\n        /* \"#utility.yul\":12751:12753   */\n      0x1f\n        /* \"#utility.yul\":12746:12749   */\n      dup3\n        /* \"#utility.yul\":12743:12754   */\n      gt\n        /* \"#utility.yul\":12740:13186   */\n      iszero\n      tag_265\n      jumpi\n        /* \"#utility.yul\":12785:12823   */\n      tag_266\n        /* \"#utility.yul\":12817:12822   */\n      dup2\n        /* \"#utility.yul\":12785:12823   */\n      tag_113\n      jump\t// in\n    tag_266:\n        /* \"#utility.yul\":12869:12898   */\n      tag_267\n        /* \"#utility.yul\":12887:12897   */\n      dup5\n        /* \"#utility.yul\":12869:12898   */\n      tag_114\n      jump\t// in\n    tag_267:\n        /* \"#utility.yul\":12859:12867   */\n      dup2\n        /* \"#utility.yul\":12855:12899   */\n      add\n        /* \"#utility.yul\":13052:13054   */\n      0x20\n        /* \"#utility.yul\":13040:13050   */\n      dup6\n        /* \"#utility.yul\":13037:13055   */\n      lt\n        /* \"#utility.yul\":13034:13083   */\n      iszero\n      tag_268\n      jumpi\n        /* \"#utility.yul\":13073:13081   */\n      dup2\n        /* \"#utility.yul\":13058:13081   */\n      swap1\n      pop\n        /* \"#utility.yul\":13034:13083   */\n    tag_268:\n        /* \"#utility.yul\":13096:13176   */\n      tag_269\n        /* \"#utility.yul\":13152:13174   */\n      tag_270\n        /* \"#utility.yul\":13170:13173   */\n      dup6\n        /* \"#utility.yul\":13152:13174   */\n      tag_114\n      jump\t// in\n    tag_270:\n        /* \"#utility.yul\":13142:13150   */\n      dup4\n        /* \"#utility.yul\":13138:13175   */\n      add\n        /* \"#utility.yul\":13125:13136   */\n      dup3\n        /* \"#utility.yul\":13096:13176   */\n      tag_123\n      jump\t// in\n    tag_269:\n        /* \"#utility.yul\":12755:13186   */\n      pop\n      pop\n        /* \"#utility.yul\":12740:13186   */\n    tag_265:\n        /* \"#utility.yul\":12650:13193   */\n      pop\n      pop\n      pop\n      jump\t// out\n        /* \"#utility.yul\":13199:13316   */\n    tag_125:\n        /* \"#utility.yul\":13253:13261   */\n      0x00\n        /* \"#utility.yul\":13303:13308   */\n      dup3\n        /* \"#utility.yul\":13297:13301   */\n      dup3\n        /* \"#utility.yul\":13293:13309   */\n      shr\n        /* \"#utility.yul\":13272:13309   */\n      swap1\n      pop\n        /* \"#utility.yul\":13199:13316   */\n      swap3\n      swap2\n      pop\n      pop\n      jump\t// out\n        /* \"#utility.yul\":13322:13491   */\n    tag_126:\n        /* \"#utility.yul\":13366:13372   */\n      0x00\n        /* \"#utility.yul\":13399:13450   */\n      tag_273\n        /* \"#utility.yul\":13447:13448   */\n      0x00\n        /* \"#utility.yul\":13443:13449   */\n      not\n        /* \"#utility.yul\":13435:13440   */\n      dup5\n        /* \"#utility.yul\":13432:13433   */\n      0x08\n        /* \"#utility.yul\":13428:13441   */\n      mul\n        /* \"#utility.yul\":13399:13450   */\n      tag_125\n      jump\t// in\n    tag_273:\n        /* \"#utility.yul\":13395:13451   */\n      not\n        /* \"#utility.yul\":13480:13484   */\n      dup1\n        /* \"#utility.yul\":13474:13478   */\n      dup4\n        /* \"#utility.yul\":13470:13485   */\n      and\n        /* \"#utility.yul\":13460:13485   */\n      swap2\n      pop\n        /* \"#utility.yul\":13373:13491   */\n      pop\n        /* \"#utility.yul\":13322:13491   */\n      swap3\n      swap2\n      pop\n      pop\n      jump\t// out\n        /* \"#utility.yul\":13496:13791   */\n    tag_127:\n        /* \"#utility.yul\":13572:13576   */\n      0x00\n        /* \"#utility.yul\":13718:13747   */\n      tag_275\n        /* \"#utility.yul\":13743:13746   */\n      dup4\n        /* \"#utility.yul\":13737:13741   */\n      dup4\n        /* \"#utility.yul\":13718:13747   */\n      tag_126\n      jump\t// in\n    tag_275:\n        /* \"#utility.yul\":13710:13747   */\n      swap2\n      pop\n        /* \"#utility.yul\":13780:13783   */\n      dup3\n        /* \"#utility.yul\":13777:13778   */\n      0x02\n        /* \"#utility.yul\":13773:13784   */\n      mul\n        /* \"#utility.yul\":13767:13771   */\n      dup3\n        /* \"#utility.yul\":13764:13785   */\n      or\n        /* \"#utility.yul\":13756:13785   */\n      swap1\n      pop\n        /* \"#utility.yul\":13496:13791   */\n      swap3\n      swap2\n      pop\n      pop\n      jump\t// out\n        /* \"#utility.yul\":13796:15191   */\n    tag_51:\n        /* \"#utility.yul\":13913:13950   */\n      tag_277\n        /* \"#utility.yul\":13946:13949   */\n      dup3\n        /* \"#utility.yul\":13913:13950   */\n      tag_98\n      jump\t// in\n    tag_277:\n        /* \"#utility.yul\":14015:14033   */\n      0xffffffffffffffff\n        /* \"#utility.yul\":14007:14013   */\n      dup2\n        /* \"#utility.yul\":14004:14034   */\n      gt\n        /* \"#utility.yul\":14001:14057   */\n      iszero\n      tag_278\n      jumpi\n        /* \"#utility.yul\":14037:14055   */\n      tag_279\n      tag_87\n      jump\t// in\n    tag_279:\n        /* \"#utility.yul\":14001:14057   */\n    tag_278:\n        /* \"#utility.yul\":14081:14119   */\n      tag_280\n        /* \"#utility.yul\":14113:14117   */\n      dup3\n        /* \"#utility.yul\":14107:14118   */\n      sload\n        /* \"#utility.yul\":14081:14119   */\n      tag_60\n      jump\t// in\n    tag_280:\n        /* \"#utility.yul\":14166:14233   */\n      tag_281\n        /* \"#utility.yul\":14226:14232   */\n      dup3\n        /* \"#utility.yul\":14218:14224   */\n      dup3\n        /* \"#utility.yul\":14212:14216   */\n      dup6\n        /* \"#utility.yul\":14166:14233   */\n      tag_124\n      jump\t// in\n    tag_281:\n        /* \"#utility.yul\":14260:14261   */\n      0x00\n        /* \"#utility.yul\":14284:14288   */\n      0x20\n        /* \"#utility.yul\":14271:14288   */\n      swap1\n      pop\n        /* \"#utility.yul\":14316:14318   */\n      0x1f\n        /* \"#utility.yul\":14308:14314   */\n      dup4\n        /* \"#utility.yul\":14305:14319   */\n      gt\n        /* \"#utility.yul\":14333:14334   */\n      0x01\n        /* \"#utility.yul\":14328:14946   */\n      dup2\n      eq\n      tag_283\n      jumpi\n        /* \"#utility.yul\":14990:14991   */\n      0x00\n        /* \"#utility.yul\":15007:15013   */\n      dup5\n        /* \"#utility.yul\":15004:15081   */\n      iszero\n      tag_284\n      jumpi\n        /* \"#utility.yul\":15056:15065   */\n      dup3\n        /* \"#utility.yul\":15051:15054   */\n      dup8\n        /* \"#utility.yul\":15047:15066   */\n      add\n        /* \"#utility.yul\":15041:15067   */\n      mload\n        /* \"#utility.yul\":15032:15067   */\n      swap1\n      pop\n        /* \"#utility.yul\":15004:15081   */\n    tag_284:\n        /* \"#utility.yul\":15107:15174   */\n      tag_285\n        /* \"#utility.yul\":15167:15173   */\n      dup6\n        /* \"#utility.yul\":15160:15165   */\n      dup3\n        /* \"#utility.yul\":15107:15174   */\n      tag_127\n      jump\t// in\n    tag_285:\n        /* \"#utility.yul\":15101:15105   */\n      dup7\n        /* \"#utility.yul\":15094:15175   */\n      sstore\n        /* \"#utility.yul\":14963:15185   */\n      pop\n        /* \"#utility.yul\":14298:15185   */\n      jump(tag_282)\n        /* \"#utility.yul\":14328:14946   */\n    tag_283:\n        /* \"#utility.yul\":14380:14384   */\n      0x1f\n        /* \"#utility.yul\":14376:14385   */\n      not\n        /* \"#utility.yul\":14368:14374   */\n      dup5\n        /* \"#utility.yul\":14364:14386   */\n      and\n        /* \"#utility.yul\":14414:14451   */\n      tag_286\n        /* \"#utility.yul\":14446:14450   */\n      dup7\n        /* \"#utility.yul\":14414:14451   */\n      tag_113\n      jump\t// in\n    tag_286:\n        /* \"#utility.yul\":14473:14474   */\n      0x00\n        /* \"#utility.yul\":14487:14695   */\n    tag_287:\n        /* \"#utility.yul\":14501:14508   */\n      dup3\n        /* \"#utility.yul\":14498:14499   */\n      dup2\n        /* \"#utility.yul\":14495:14509   */\n      lt\n        /* \"#utility.yul\":14487:14695   */\n      iszero\n      tag_289\n      jumpi\n        /* \"#utility.yul\":14580:14589   */\n      dup5\n        /* \"#utility.yul\":14575:14578   */\n      dup10\n        /* \"#utility.yul\":14571:14590   */\n      add\n        /* \"#utility.yul\":14565:14591   */\n      mload\n        /* \"#utility.yul\":14557:14563   */\n      dup3\n        /* \"#utility.yul\":14550:14592   */\n      sstore\n        /* \"#utility.yul\":14631:14632   */\n      0x01\n        /* \"#utility.yul\":14623:14629   */\n      dup3\n        /* \"#utility.yul\":14619:14633   */\n      add\n        /* \"#utility.yul\":14609:14633   */\n      swap2\n      pop\n        /* \"#utility.yul\":14678:14680   */\n      0x20\n        /* \"#utility.yul\":14667:14676   */\n      dup6\n        /* \"#utility.yul\":14663:14681   */\n      add\n        /* \"#utility.yul\":14650:14681   */\n      swap5\n      pop\n        /* \"#utility.yul\":14524:14528   */\n      0x20\n        /* \"#utility.yul\":14521:14522   */\n      dup2\n        /* \"#utility.yul\":14517:14529   */\n      add\n        /* \"#utility.yul\":14512:14529   */\n      swap1\n      pop\n        /* \"#utility.yul\":14487:14695   */\n      jump(tag_287)\n    tag_289:\n        /* \"#utility.yul\":14723:14729   */\n      dup7\n        /* \"#utility.yul\":14714:14721   */\n      dup4\n        /* \"#utility.yul\":14711:14730   */\n      lt\n        /* \"#utility.yul\":14708:14887   */\n      iszero\n      tag_290\n      jumpi\n        /* \"#utility.yul\":14781:14790   */\n      dup5\n        /* \"#utility.yul\":14776:14779   */\n      dup10\n        /* \"#utility.yul\":14772:14791   */\n      add\n        /* \"#utility.yul\":14766:14792   */\n      mload\n        /* \"#utility.yul\":14824:14872   */\n      tag_291\n        /* \"#utility.yul\":14866:14870   */\n      0x1f\n        /* \"#utility.yul\":14858:14864   */\n      dup10\n        /* \"#utility.yul\":14854:14871   */\n      and\n        /* \"#utility.yul\":14843:14852   */\n      dup3\n        /* \"#utility.yul\":14824:14872   */\n      tag_126\n      jump\t// in\n    tag_291:\n        /* \"#utility.yul\":14816:14822   */\n      dup4\n        /* \"#utility.yul\":14809:14873   */\n      sstore\n        /* \"#utility.yul\":14731:14887   */\n      pop\n        /* \"#utility.yul\":14708:14887   */\n    tag_290:\n        /* \"#utility.yul\":14933:14934   */\n      0x01\n        /* \"#utility.yul\":14929:14930   */\n      0x02\n        /* \"#utility.yul\":14921:14927   */\n      dup9\n        /* \"#utility.yul\":14917:14931   */\n      mul\n        /* \"#utility.yul\":14913:14935   */\n      add\n        /* \"#utility.yul\":14907:14911   */\n      dup9\n        /* \"#utility.yul\":14900:14936   */\n      sstore\n        /* \"#utility.yul\":14335:14946   */\n      pop\n      pop\n      pop\n        /* \"#utility.yul\":14298:15185   */\n    tag_282:\n      pop\n        /* \"#utility.yul\":13888:15191   */\n      pop\n      pop\n      pop\n        /* \"#utility.yul\":13796:15191   */\n      pop\n      pop\n      jump\t// out\n        /* \"#utility.yul\":15197:15369   */\n    tag_128:\n        /* \"#utility.yul\":15337:15361   */\n      0x50726f6475637420646f6573206e6f7420657869737400000000000000000000\n        /* \"#utility.yul\":15333:15334   */\n      0x00\n        /* \"#utility.yul\":15325:15331   */\n      dup3\n        /* \"#utility.yul\":15321:15335   */\n      add\n        /* \"#utility.yul\":15314:15362   */\n      mstore\n        /* \"#utility.yul\":15197:15369   */\n      pop\n      jump\t// out\n        /* \"#utility.yul\":15375:15741   */\n    tag_129:\n        /* \"#utility.yul\":15517:15520   */\n      0x00\n        /* \"#utility.yul\":15538:15605   */\n      tag_294\n        /* \"#utility.yul\":15602:15604   */\n      0x16\n        /* \"#utility.yul\":15597:15600   */\n      dup4\n        /* \"#utility.yul\":15538:15605   */\n      tag_99\n      jump\t// in\n    tag_294:\n        /* \"#utility.yul\":15531:15605   */\n      swap2\n      pop\n        /* \"#utility.yul\":15614:15707   */\n      tag_295\n        /* \"#utility.yul\":15703:15706   */\n      dup3\n        /* \"#utility.yul\":15614:15707   */\n      tag_128\n      jump\t// in\n    tag_295:\n        /* \"#utility.yul\":15732:15734   */\n      0x20\n        /* \"#utility.yul\":15727:15730   */\n      dup3\n        /* \"#utility.yul\":15723:15735   */\n      add\n        /* \"#utility.yul\":15716:15735   */\n      swap1\n      pop\n        /* \"#utility.yul\":15375:15741   */\n      swap2\n      swap1\n      pop\n      jump\t// out\n        /* \"#utility.yul\":15747:16166   */\n    tag_68:\n        /* \"#utility.yul\":15913:15917   */\n      0x00\n        /* \"#utility.yul\":15951:15953   */\n      0x20\n        /* \"#utility.yul\":15940:15949   */\n      dup3\n        /* \"#utility.yul\":15936:15954   */\n      add\n        /* \"#utility.yul\":15928:15954   */\n      swap1\n      pop\n        /* \"#utility.yul\":16000:16009   */\n      dup2\n        /* \"#utility.yul\":15994:15998   */\n      dup2\n        /* \"#utility.yul\":15990:16010   */\n      sub\n        /* \"#utility.yul\":15986:15987   */\n      0x00\n        /* \"#utility.yul\":15975:15984   */\n      dup4\n        /* \"#utility.yul\":15971:15988   */\n      add\n        /* \"#utility.yul\":15964:16011   */\n      mstore\n        /* \"#utility.yul\":16028:16159   */\n      tag_297\n        /* \"#utility.yul\":16154:16158   */\n      dup2\n        /* \"#utility.yul\":16028:16159   */\n      tag_129\n      jump\t// in\n    tag_297:\n        /* \"#utility.yul\":16020:16159   */\n      swap1\n      pop\n        /* \"#utility.yul\":15747:16166   */\n      swap2\n      swap1\n      pop\n      jump\t// out\n        /* \"#utility.yul\":16172:16348   */\n    tag_130:\n        /* \"#utility.yul\":16312:16340   */\n      0x4e6f7420656e6f7567682073746f636b20617661696c61626c65000000000000\n        /* \"#utility.yul\":16308:16309   */\n      0x00\n        /* \"#utility.yul\":16300:16306   */\n      dup3\n        /* \"#utility.yul\":16296:16310   */\n      add\n        /* \"#utility.yul\":16289:16341   */\n      mstore\n        /* \"#utility.yul\":16172:16348   */\n      pop\n      jump\t// out\n        /* \"#utility.yul\":16354:16720   */\n    tag_131:\n        /* \"#utility.yul\":16496:16499   */\n      0x00\n        /* \"#utility.yul\":16517:16584   */\n      tag_300\n        /* \"#utility.yul\":16581:16583   */\n      0x1a\n        /* \"#utility.yul\":16576:16579   */\n      dup4\n        /* \"#utility.yul\":16517:16584   */\n      tag_99\n      jump\t// in\n    tag_300:\n        /* \"#utility.yul\":16510:16584   */\n      swap2\n      pop\n        /* \"#utility.yul\":16593:16686   */\n      tag_301\n        /* \"#utility.yul\":16682:16685   */\n      dup3\n        /* \"#utility.yul\":16593:16686   */\n      tag_130\n      jump\t// in\n    tag_301:\n        /* \"#utility.yul\":16711:16713   */\n      0x20\n        /* \"#utility.yul\":16706:16709   */\n      dup3\n        /* \"#utility.yul\":16702:16714   */\n      add\n        /* \"#utility.yul\":16695:16714   */\n      swap1\n      pop\n        /* \"#utility.yul\":16354:16720   */\n      swap2\n      swap1\n      pop\n      jump\t// out\n        /* \"#utility.yul\":16726:17145   */\n    tag_71:\n        /* \"#utility.yul\":16892:16896   */\n      0x00\n        /* \"#utility.yul\":16930:16932   */\n      0x20\n        /* \"#utility.yul\":16919:16928   */\n      dup3\n        /* \"#utility.yul\":16915:16933   */\n      add\n        /* \"#utility.yul\":16907:16933   */\n      swap1\n      pop\n        /* \"#utility.yul\":16979:16988   */\n      dup2\n        /* \"#utility.yul\":16973:16977   */\n      dup2\n        /* \"#utility.yul\":16969:16989   */\n      sub\n        /* \"#utility.yul\":16965:16966   */\n      0x00\n        /* \"#utility.yul\":16954:16963   */\n      dup4\n        /* \"#utility.yul\":16950:16967   */\n      add\n        /* \"#utility.yul\":16943:16990   */\n      mstore\n        /* \"#utility.yul\":17007:17138   */\n      tag_303\n        /* \"#utility.yul\":17133:17137   */\n      dup2\n        /* \"#utility.yul\":17007:17138   */\n      tag_131\n      jump\t// in\n    tag_303:\n        /* \"#utility.yul\":16999:17138   */\n      swap1\n      pop\n        /* \"#utility.yul\":16726:17145   */\n      swap2\n      swap1\n      pop\n      jump\t// out\n        /* \"#utility.yul\":17151:17561   */\n    tag_73:\n        /* \"#utility.yul\":17191:17198   */\n      0x00\n        /* \"#utility.yul\":17214:17234   */\n      tag_305\n        /* \"#utility.yul\":17232:17233   */\n      dup3\n        /* \"#utility.yul\":17214:17234   */\n      tag_94\n      jump\t// in\n    tag_305:\n        /* \"#utility.yul\":17209:17234   */\n      swap2\n      pop\n        /* \"#utility.yul\":17248:17268   */\n      tag_306\n        /* \"#utility.yul\":17266:17267   */\n      dup4\n        /* \"#utility.yul\":17248:17268   */\n      tag_94\n      jump\t// in\n    tag_306:\n        /* \"#utility.yul\":17243:17268   */\n      swap3\n      pop\n        /* \"#utility.yul\":17303:17304   */\n      dup3\n        /* \"#utility.yul\":17300:17301   */\n      dup3\n        /* \"#utility.yul\":17296:17305   */\n      mul\n        /* \"#utility.yul\":17325:17355   */\n      tag_307\n        /* \"#utility.yul\":17343:17354   */\n      dup2\n        /* \"#utility.yul\":17325:17355   */\n      tag_94\n      jump\t// in\n    tag_307:\n        /* \"#utility.yul\":17314:17355   */\n      swap2\n      pop\n        /* \"#utility.yul\":17504:17505   */\n      dup3\n        /* \"#utility.yul\":17495:17502   */\n      dup3\n        /* \"#utility.yul\":17491:17506   */\n      div\n        /* \"#utility.yul\":17488:17489   */\n      dup5\n        /* \"#utility.yul\":17485:17507   */\n      eq\n        /* \"#utility.yul\":17465:17466   */\n      dup4\n        /* \"#utility.yul\":17458:17467   */\n      iszero\n        /* \"#utility.yul\":17438:17521   */\n      or\n        /* \"#utility.yul\":17415:17554   */\n      tag_308\n      jumpi\n        /* \"#utility.yul\":17534:17552   */\n      tag_309\n      tag_111\n      jump\t// in\n    tag_309:\n        /* \"#utility.yul\":17415:17554   */\n    tag_308:\n        /* \"#utility.yul\":17199:17561   */\n      pop\n        /* \"#utility.yul\":17151:17561   */\n      swap3\n      swap2\n      pop\n      pop\n      jump\t// out\n        /* \"#utility.yul\":17567:17741   */\n    tag_132:\n        /* \"#utility.yul\":17707:17733   */\n      0x496e636f7272656374207061796d656e7420616d6f756e740000000000000000\n        /* \"#utility.yul\":17703:17704   */\n      0x00\n        /* \"#utility.yul\":17695:17701   */\n      dup3\n        /* \"#utility.yul\":17691:17705   */\n      add\n        /* \"#utility.yul\":17684:17734   */\n      mstore\n        /* \"#utility.yul\":17567:17741   */\n      pop\n      jump\t// out\n        /* \"#utility.yul\":17747:18113   */\n    tag_133:\n        /* \"#utility.yul\":17889:17892   */\n      0x00\n        /* \"#utility.yul\":17910:17977   */\n      tag_312\n        /* \"#utility.yul\":17974:17976   */\n      0x18\n        /* \"#utility.yul\":17969:17972   */\n      dup4\n        /* \"#utility.yul\":17910:17977   */\n      tag_99\n      jump\t// in\n    tag_312:\n        /* \"#utility.yul\":17903:17977   */\n      swap2\n      pop\n        /* \"#utility.yul\":17986:18079   */\n      tag_313\n        /* \"#utility.yul\":18075:18078   */\n      dup3\n        /* \"#utility.yul\":17986:18079   */\n      tag_132\n      jump\t// in\n    tag_313:\n        /* \"#utility.yul\":18104:18106   */\n      0x20\n        /* \"#utility.yul\":18099:18102   */\n      dup3\n        /* \"#utility.yul\":18095:18107   */\n      add\n        /* \"#utility.yul\":18088:18107   */\n      swap1\n      pop\n        /* \"#utility.yul\":17747:18113   */\n      swap2\n      swap1\n      pop\n      jump\t// out\n        /* \"#utility.yul\":18119:18538   */\n    tag_76:\n        /* \"#utility.yul\":18285:18289   */\n      0x00\n        /* \"#utility.yul\":18323:18325   */\n      0x20\n        /* \"#utility.yul\":18312:18321   */\n      dup3\n        /* \"#utility.yul\":18308:18326   */\n      add\n        /* \"#utility.yul\":18300:18326   */\n      swap1\n      pop\n        /* \"#utility.yul\":18372:18381   */\n      dup2\n        /* \"#utility.yul\":18366:18370   */\n      dup2\n        /* \"#utility.yul\":18362:18382   */\n      sub\n        /* \"#utility.yul\":18358:18359   */\n      0x00\n        /* \"#utility.yul\":18347:18356   */\n      dup4\n        /* \"#utility.yul\":18343:18360   */\n      add\n        /* \"#utility.yul\":18336:18383   */\n      mstore\n        /* \"#utility.yul\":18400:18531   */\n      tag_315\n        /* \"#utility.yul\":18526:18530   */\n      dup2\n        /* \"#utility.yul\":18400:18531   */\n      tag_133\n      jump\t// in\n    tag_315:\n        /* \"#utility.yul\":18392:18531   */\n      swap1\n      pop\n        /* \"#utility.yul\":18119:18538   */\n      swap2\n      swap1\n      pop\n      jump\t// out\n        /* \"#utility.yul\":18544:18738   */\n    tag_78:\n        /* \"#utility.yul\":18584:18588   */\n      0x00\n        /* \"#utility.yul\":18604:18624   */\n      tag_317\n        /* \"#utility.yul\":18622:18623   */\n      dup3\n        /* \"#utility.yul\":18604:18624   */\n      tag_94\n      jump\t// in\n    tag_317:\n        /* \"#utility.yul\":18599:18624   */\n      swap2\n      pop\n        /* \"#utility.yul\":18638:18658   */\n      tag_318\n        /* \"#utility.yul\":18656:18657   */\n      dup4\n        /* \"#utility.yul\":18638:18658   */\n      tag_94\n      jump\t// in\n    tag_318:\n        /* \"#utility.yul\":18633:18658   */\n      swap3\n      pop\n        /* \"#utility.yul\":18682:18683   */\n      dup3\n        /* \"#utility.yul\":18679:18680   */\n      dup3\n        /* \"#utility.yul\":18675:18684   */\n      sub\n        /* \"#utility.yul\":18667:18684   */\n      swap1\n      pop\n        /* \"#utility.yul\":18706:18707   */\n      dup2\n        /* \"#utility.yul\":18700:18704   */\n      dup2\n        /* \"#utility.yul\":18697:18708   */\n      gt\n        /* \"#utility.yul\":18694:18731   */\n      iszero\n      tag_319\n      jumpi\n        /* \"#utility.yul\":18711:18729   */\n      tag_320\n      tag_111\n      jump\t// in\n    tag_320:\n        /* \"#utility.yul\":18694:18731   */\n    tag_319:\n        /* \"#utility.yul\":18544:18738   */\n      swap3\n      swap2\n      pop\n      pop\n      jump\t// out\n        /* \"#utility.yul\":18744:19186   */\n    tag_80:\n        /* \"#utility.yul\":18893:18897   */\n      0x00\n        /* \"#utility.yul\":18931:18933   */\n      0x60\n        /* \"#utility.yul\":18920:18929   */\n      dup3\n        /* \"#utility.yul\":18916:18934   */\n      add\n        /* \"#utility.yul\":18908:18934   */\n      swap1\n      pop\n        /* \"#utility.yul\":18944:19015   */\n      tag_322\n        /* \"#utility.yul\":19012:19013   */\n      0x00\n        /* \"#utility.yul\":19001:19010   */\n      dup4\n        /* \"#utility.yul\":18997:19014   */\n      add\n        /* \"#utility.yul\":18988:18994   */\n      dup7\n        /* \"#utility.yul\":18944:19015   */\n      tag_97\n      jump\t// in\n    tag_322:\n        /* \"#utility.yul\":19025:19097   */\n      tag_323\n        /* \"#utility.yul\":19093:19095   */\n      0x20\n        /* \"#utility.yul\":19082:19091   */\n      dup4\n        /* \"#utility.yul\":19078:19096   */\n      add\n        /* \"#utility.yul\":19069:19075   */\n      dup6\n        /* \"#utility.yul\":19025:19097   */\n      tag_104\n      jump\t// in\n    tag_323:\n        /* \"#utility.yul\":19107:19179   */\n      tag_324\n        /* \"#utility.yul\":19175:19177   */\n      0x40\n        /* \"#utility.yul\":19164:19173   */\n      dup4\n        /* \"#utility.yul\":19160:19178   */\n      add\n        /* \"#utility.yul\":19151:19157   */\n      dup5\n        /* \"#utility.yul\":19107:19179   */\n      tag_97\n      jump\t// in\n    tag_324:\n        /* \"#utility.yul\":18744:19186   */\n      swap5\n      swap4\n      pop\n      pop\n      pop\n      pop\n      jump\t// out\n\n    auxdata: 0xa26469706673582212209f4ae1e023e5d165b3a8b7e8b9a7a74d61c6feb941b3ced443924ea7acfe3ec264736f6c634300081a0033\n}\n",
				"bytecode": {
					"linkReferences": {},
					"object": "6080604052348015600e575f80fd5b50335f806101000a81548173ffffffffffffffffffffffffffffffffffffffff021916908373ffffffffffffffffffffffffffffffffffffffff1602179055506110658061005b5f395ff3fe608060405260043610610054575f3560e01c8063125b0b341461005857806324600fc3146100805780637acc0b20146100965780638da5cb5b146100d5578063a0440426146100ff578063e0f6ef871461011b575b5f80fd5b348015610063575f80fd5b5061007e600480360381019061007991906107b4565b610145565b005b34801561008b575f80fd5b5061009461031c565b005b3480156100a1575f80fd5b506100bc60048036038101906100b79190610820565b61040e565b6040516100cc94939291906108ba565b60405180910390f35b3480156100e0575f80fd5b506100e96104c0565b6040516100f69190610943565b60405180910390f35b6101196004803603810190610114919061095c565b6104e3565b005b348015610126575f80fd5b5061012f61062e565b60405161013c919061099a565b60405180910390f35b5f8054906101000a900473ffffffffffffffffffffffffffffffffffffffff1673ffffffffffffffffffffffffffffffffffffffff163373ffffffffffffffffffffffffffffffffffffffff16146101d2576040517f08c379a00000000000000000000000000000000000000000000000000000000081526004016101c990610a23565b60405180910390fd5b5f8211610214576040517f08c379a000000000000000000000000000000000000000000000000000000000815260040161020b90610a8b565b60405180910390fd5b5f8111610256576040517f08c379a000000000000000000000000000000000000000000000000000000000815260040161024d90610af3565b60405180910390fd5b60025f81548092919061026890610b3e565b9190505550604051806080016040528060025481526020018481526020018381526020018281525060015f60025481526020019081526020015f205f820151815f015560208201518160010190816102c09190610d7f565b5060408201518160020155606082015181600301559050507f0107e99fb43ba873db8a5ce7c34a12cd44cd3041167cff32040ddb6aca455ae660025484848460405161030f94939291906108ba565b60405180910390a1505050565b5f8054906101000a900473ffffffffffffffffffffffffffffffffffffffff1673ffffffffffffffffffffffffffffffffffffffff163373ffffffffffffffffffffffffffffffffffffffff16146103a9576040517f08c379a00000000000000000000000000000000000000000000000000000000081526004016103a090610a23565b60405180910390fd5b5f8054906101000a900473ffffffffffffffffffffffffffffffffffffffff1673ffffffffffffffffffffffffffffffffffffffff166108fc4790811502906040515f60405180830381858888f1935050505015801561040b573d5f803e3d5ffd5b50565b6001602052805f5260405f205f91509050805f01549080600101805461043390610bb2565b80601f016020809104026020016040519081016040528092919081815260200182805461045f90610bb2565b80156104aa5780601f10610481576101008083540402835291602001916104aa565b820191905f5260205f20905b81548152906001019060200180831161048d57829003601f168201915b5050505050908060020154908060030154905084565b5f8054906101000a900473ffffffffffffffffffffffffffffffffffffffff1681565b5f60015f8481526020019081526020015f2090505f815f01540361053c576040517f08c379a000000000000000000000000000000000000000000000000000000000815260040161053390610e98565b60405180910390fd5b8181600301541015610583576040517f08c379a000000000000000000000000000000000000000000000000000000000815260040161057a90610f00565b60405180910390fd5b8181600201546105939190610f1e565b34146105d4576040517f08c379a00000000000000000000000000000000000000000000000000000000081526004016105cb90610fa9565b60405180910390fd5b81816003015f8282546105e79190610fc7565b925050819055507fa530f889d7f1bd9a73028e48944ca013ab2c6624a31e3fa26f923f4bb719abd583338460405161062193929190610ffa565b60405180910390a1505050565b60025481565b5f604051905090565b5f80fd5b5f80fd5b5f80fd5b5f80fd5b5f601f19601f8301169050919050565b7f4e487b71000000000000000000000000000000000000000000000000000000005f52604160045260245ffd5b6106938261064d565b810181811067ffffffffffffffff821117156106b2576106b161065d565b5b80604052505050565b5f6106c4610634565b90506106d0828261068a565b919050565b5f67ffffffffffffffff8211156106ef576106ee61065d565b5b6106f88261064d565b9050602081019050919050565b828183375f83830152505050565b5f610725610720846106d5565b6106bb565b90508281526020810184848401111561074157610740610649565b5b61074c848285610705565b509392505050565b5f82601f83011261076857610767610645565b5b8135610778848260208601610713565b91505092915050565b5f819050919050565b61079381610781565b811461079d575f80fd5b50565b5f813590506107ae8161078a565b92915050565b5f805f606084860312156107cb576107ca61063d565b5b5f84013567ffffffffffffffff8111156107e8576107e7610641565b5b6107f486828701610754565b9350506020610805868287016107a0565b9250506040610816868287016107a0565b9150509250925092565b5f602082840312156108355761083461063d565b5b5f610842848285016107a0565b91505092915050565b61085481610781565b82525050565b5f81519050919050565b5f82825260208201905092915050565b8281835e5f83830152505050565b5f61088c8261085a565b6108968185610864565b93506108a6818560208601610874565b6108af8161064d565b840191505092915050565b5f6080820190506108cd5f83018761084b565b81810360208301526108df8186610882565b90506108ee604083018561084b565b6108fb606083018461084b565b95945050505050565b5f73ffffffffffffffffffffffffffffffffffffffff82169050919050565b5f61092d82610904565b9050919050565b61093d81610923565b82525050565b5f6020820190506109565f830184610934565b92915050565b5f80604083850312156109725761097161063d565b5b5f61097f858286016107a0565b9250506020610990858286016107a0565b9150509250929050565b5f6020820190506109ad5f83018461084b565b92915050565b7f4f6e6c79206f776e65722063616e20706572666f726d207468697320616374695f8201527f6f6e000000000000000000000000000000000000000000000000000000000000602082015250565b5f610a0d602283610864565b9150610a18826109b3565b604082019050919050565b5f6020820190508181035f830152610a3a81610a01565b9050919050565b7f5072696365206d7573742062652067726561746572207468616e207a65726f005f82015250565b5f610a75601f83610864565b9150610a8082610a41565b602082019050919050565b5f6020820190508181035f830152610aa281610a69565b9050919050565b7f53746f636b206d7573742062652067726561746572207468616e207a65726f005f82015250565b5f610add601f83610864565b9150610ae882610aa9565b602082019050919050565b5f6020820190508181035f830152610b0a81610ad1565b9050919050565b7f4e487b71000000000000000000000000000000000000000000000000000000005f52601160045260245ffd5b5f610b4882610781565b91507fffffffffffffffffffffffffffffffffffffffffffffffffffffffffffffffff8203610b7a57610b79610b11565b5b600182019050919050565b7f4e487b71000000000000000000000000000000000000000000000000000000005f52602260045260245ffd5b5f6002820490506001821680610bc957607f821691505b602082108103610bdc57610bdb610b85565b5b50919050565b5f819050815f5260205f209050919050565b5f6020601f8301049050919050565b5f82821b905092915050565b5f60088302610c3e7fffffffffffffffffffffffffffffffffffffffffffffffffffffffffffffffff82610c03565b610c488683610c03565b95508019841693508086168417925050509392505050565b5f819050919050565b5f610c83610c7e610c7984610781565b610c60565b610781565b9050919050565b5f819050919050565b610c9c83610c69565b610cb0610ca882610c8a565b848454610c0f565b825550505050565b5f90565b610cc4610cb8565b610ccf818484610c93565b505050565b5b81811015610cf257610ce75f82610cbc565b600181019050610cd5565b5050565b601f821115610d3757610d0881610be2565b610d1184610bf4565b81016020851015610d20578190505b610d34610d2c85610bf4565b830182610cd4565b50505b505050565b5f82821c905092915050565b5f610d575f1984600802610d3c565b1980831691505092915050565b5f610d6f8383610d48565b9150826002028217905092915050565b610d888261085a565b67ffffffffffffffff811115610da157610da061065d565b5b610dab8254610bb2565b610db6828285610cf6565b5f60209050601f831160018114610de7575f8415610dd5578287015190505b610ddf8582610d64565b865550610e46565b601f198416610df586610be2565b5f5b82811015610e1c57848901518255600182019150602085019450602081019050610df7565b86831015610e395784890151610e35601f891682610d48565b8355505b6001600288020188555050505b505050505050565b7f50726f6475637420646f6573206e6f74206578697374000000000000000000005f82015250565b5f610e82601683610864565b9150610e8d82610e4e565b602082019050919050565b5f6020820190508181035f830152610eaf81610e76565b9050919050565b7f4e6f7420656e6f7567682073746f636b20617661696c61626c650000000000005f82015250565b5f610eea601a83610864565b9150610ef582610eb6565b602082019050919050565b5f6020820190508181035f830152610f1781610ede565b9050919050565b5f610f2882610781565b9150610f3383610781565b9250828202610f4181610781565b91508282048414831517610f5857610f57610b11565b5b5092915050565b7f496e636f7272656374207061796d656e7420616d6f756e7400000000000000005f82015250565b5f610f93601883610864565b9150610f9e82610f5f565b602082019050919050565b5f6020820190508181035f830152610fc081610f87565b9050919050565b5f610fd182610781565b9150610fdc83610781565b9250828203905081811115610ff457610ff3610b11565b5b92915050565b5f60608201905061100d5f83018661084b565b61101a6020830185610934565b611027604083018461084b565b94935050505056fea26469706673582212209f4ae1e023e5d165b3a8b7e8b9a7a74d61c6feb941b3ced443924ea7acfe3ec264736f6c634300081a0033",
					"opcodes": "PUSH1 0x80 PUSH1 0x40 MSTORE CALLVALUE DUP1 ISZERO PUSH1 0xE JUMPI PUSH0 DUP1 REVERT JUMPDEST POP CALLER PUSH0 DUP1 PUSH2 0x100 EXP DUP2 SLOAD DUP2 PUSH20 0xFFFFFFFFFFFFFFFFFFFFFFFFFFFFFFFFFFFFFFFF MUL NOT AND SWAP1 DUP4 PUSH20 0xFFFFFFFFFFFFFFFFFFFFFFFFFFFFFFFFFFFFFFFF AND MUL OR SWAP1 SSTORE POP PUSH2 0x1065 DUP1 PUSH2 0x5B PUSH0 CODECOPY PUSH0 RETURN INVALID PUSH1 0x80 PUSH1 0x40 MSTORE PUSH1 0x4 CALLDATASIZE LT PUSH2 0x54 JUMPI PUSH0 CALLDATALOAD PUSH1 0xE0 SHR DUP1 PUSH4 0x125B0B34 EQ PUSH2 0x58 JUMPI DUP1 PUSH4 0x24600FC3 EQ PUSH2 0x80 JUMPI DUP1 PUSH4 0x7ACC0B20 EQ PUSH2 0x96 JUMPI DUP1 PUSH4 0x8DA5CB5B EQ PUSH2 0xD5 JUMPI DUP1 PUSH4 0xA0440426 EQ PUSH2 0xFF JUMPI DUP1 PUSH4 0xE0F6EF87 EQ PUSH2 0x11B JUMPI JUMPDEST PUSH0 DUP1 REVERT JUMPDEST CALLVALUE DUP1 ISZERO PUSH2 0x63 JUMPI PUSH0 DUP1 REVERT JUMPDEST POP PUSH2 0x7E PUSH1 0x4 DUP1 CALLDATASIZE SUB DUP2 ADD SWAP1 PUSH2 0x79 SWAP2 SWAP1 PUSH2 0x7B4 JUMP JUMPDEST PUSH2 0x145 JUMP JUMPDEST STOP JUMPDEST CALLVALUE DUP1 ISZERO PUSH2 0x8B JUMPI PUSH0 DUP1 REVERT JUMPDEST POP PUSH2 0x94 PUSH2 0x31C JUMP JUMPDEST STOP JUMPDEST CALLVALUE DUP1 ISZERO PUSH2 0xA1 JUMPI PUSH0 DUP1 REVERT JUMPDEST POP PUSH2 0xBC PUSH1 0x4 DUP1 CALLDATASIZE SUB DUP2 ADD SWAP1 PUSH2 0xB7 SWAP2 SWAP1 PUSH2 0x820 JUMP JUMPDEST PUSH2 0x40E JUMP JUMPDEST PUSH1 0x40 MLOAD PUSH2 0xCC SWAP5 SWAP4 SWAP3 SWAP2 SWAP1 PUSH2 0x8BA JUMP JUMPDEST PUSH1 0x40 MLOAD DUP1 SWAP2 SUB SWAP1 RETURN JUMPDEST CALLVALUE DUP1 ISZERO PUSH2 0xE0 JUMPI PUSH0 DUP1 REVERT JUMPDEST POP PUSH2 0xE9 PUSH2 0x4C0 JUMP JUMPDEST PUSH1 0x40 MLOAD PUSH2 0xF6 SWAP2 SWAP1 PUSH2 0x943 JUMP JUMPDEST PUSH1 0x40 MLOAD DUP1 SWAP2 SUB SWAP1 RETURN JUMPDEST PUSH2 0x119 PUSH1 0x4 DUP1 CALLDATASIZE SUB DUP2 ADD SWAP1 PUSH2 0x114 SWAP2 SWAP1 PUSH2 0x95C JUMP JUMPDEST PUSH2 0x4E3 JUMP JUMPDEST STOP JUMPDEST CALLVALUE DUP1 ISZERO PUSH2 0x126 JUMPI PUSH0 DUP1 REVERT JUMPDEST POP PUSH2 0x12F PUSH2 0x62E JUMP JUMPDEST PUSH1 0x40 MLOAD PUSH2 0x13C SWAP2 SWAP1 PUSH2 0x99A JUMP JUMPDEST PUSH1 0x40 MLOAD DUP1 SWAP2 SUB SWAP1 RETURN JUMPDEST PUSH0 DUP1 SLOAD SWAP1 PUSH2 0x100 EXP SWAP1 DIV PUSH20 0xFFFFFFFFFFFFFFFFFFFFFFFFFFFFFFFFFFFFFFFF AND PUSH20 0xFFFFFFFFFFFFFFFFFFFFFFFFFFFFFFFFFFFFFFFF AND CALLER PUSH20 0xFFFFFFFFFFFFFFFFFFFFFFFFFFFFFFFFFFFFFFFF AND EQ PUSH2 0x1D2 JUMPI PUSH1 0x40 MLOAD PUSH32 0x8C379A000000000000000000000000000000000000000000000000000000000 DUP2 MSTORE PUSH1 0x4 ADD PUSH2 0x1C9 SWAP1 PUSH2 0xA23 JUMP JUMPDEST PUSH1 0x40 MLOAD DUP1 SWAP2 SUB SWAP1 REVERT JUMPDEST PUSH0 DUP3 GT PUSH2 0x214 JUMPI PUSH1 0x40 MLOAD PUSH32 0x8C379A000000000000000000000000000000000000000000000000000000000 DUP2 MSTORE PUSH1 0x4 ADD PUSH2 0x20B SWAP1 PUSH2 0xA8B JUMP JUMPDEST PUSH1 0x40 MLOAD DUP1 SWAP2 SUB SWAP1 REVERT JUMPDEST PUSH0 DUP2 GT PUSH2 0x256 JUMPI PUSH1 0x40 MLOAD PUSH32 0x8C379A000000000000000000000000000000000000000000000000000000000 DUP2 MSTORE PUSH1 0x4 ADD PUSH2 0x24D SWAP1 PUSH2 0xAF3 JUMP JUMPDEST PUSH1 0x40 MLOAD DUP1 SWAP2 SUB SWAP1 REVERT JUMPDEST PUSH1 0x2 PUSH0 DUP2 SLOAD DUP1 SWAP3 SWAP2 SWAP1 PUSH2 0x268 SWAP1 PUSH2 0xB3E JUMP JUMPDEST SWAP2 SWAP1 POP SSTORE POP PUSH1 0x40 MLOAD DUP1 PUSH1 0x80 ADD PUSH1 0x40 MSTORE DUP1 PUSH1 0x2 SLOAD DUP2 MSTORE PUSH1 0x20 ADD DUP5 DUP2 MSTORE PUSH1 0x20 ADD DUP4 DUP2 MSTORE PUSH1 0x20 ADD DUP3 DUP2 MSTORE POP PUSH1 0x1 PUSH0 PUSH1 0x2 SLOAD DUP2 MSTORE PUSH1 0x20 ADD SWAP1 DUP2 MSTORE PUSH1 0x20 ADD PUSH0 KECCAK256 PUSH0 DUP3 ADD MLOAD DUP2 PUSH0 ADD SSTORE PUSH1 0x20 DUP3 ADD MLOAD DUP2 PUSH1 0x1 ADD SWAP1 DUP2 PUSH2 0x2C0 SWAP2 SWAP1 PUSH2 0xD7F JUMP JUMPDEST POP PUSH1 0x40 DUP3 ADD MLOAD DUP2 PUSH1 0x2 ADD SSTORE PUSH1 0x60 DUP3 ADD MLOAD DUP2 PUSH1 0x3 ADD SSTORE SWAP1 POP POP PUSH32 0x107E99FB43BA873DB8A5CE7C34A12CD44CD3041167CFF32040DDB6ACA455AE6 PUSH1 0x2 SLOAD DUP5 DUP5 DUP5 PUSH1 0x40 MLOAD PUSH2 0x30F SWAP5 SWAP4 SWAP3 SWAP2 SWAP1 PUSH2 0x8BA JUMP JUMPDEST PUSH1 0x40 MLOAD DUP1 SWAP2 SUB SWAP1 LOG1 POP POP POP JUMP JUMPDEST PUSH0 DUP1 SLOAD SWAP1 PUSH2 0x100 EXP SWAP1 DIV PUSH20 0xFFFFFFFFFFFFFFFFFFFFFFFFFFFFFFFFFFFFFFFF AND PUSH20 0xFFFFFFFFFFFFFFFFFFFFFFFFFFFFFFFFFFFFFFFF AND CALLER PUSH20 0xFFFFFFFFFFFFFFFFFFFFFFFFFFFFFFFFFFFFFFFF AND EQ PUSH2 0x3A9 JUMPI PUSH1 0x40 MLOAD PUSH32 0x8C379A000000000000000000000000000000000000000000000000000000000 DUP2 MSTORE PUSH1 0x4 ADD PUSH2 0x3A0 SWAP1 PUSH2 0xA23 JUMP JUMPDEST PUSH1 0x40 MLOAD DUP1 SWAP2 SUB SWAP1 REVERT JUMPDEST PUSH0 DUP1 SLOAD SWAP1 PUSH2 0x100 EXP SWAP1 DIV PUSH20 0xFFFFFFFFFFFFFFFFFFFFFFFFFFFFFFFFFFFFFFFF AND PUSH20 0xFFFFFFFFFFFFFFFFFFFFFFFFFFFFFFFFFFFFFFFF AND PUSH2 0x8FC SELFBALANCE SWAP1 DUP2 ISZERO MUL SWAP1 PUSH1 0x40 MLOAD PUSH0 PUSH1 0x40 MLOAD DUP1 DUP4 SUB DUP2 DUP6 DUP9 DUP9 CALL SWAP4 POP POP POP POP ISZERO DUP1 ISZERO PUSH2 0x40B JUMPI RETURNDATASIZE PUSH0 DUP1 RETURNDATACOPY RETURNDATASIZE PUSH0 REVERT JUMPDEST POP JUMP JUMPDEST PUSH1 0x1 PUSH1 0x20 MSTORE DUP1 PUSH0 MSTORE PUSH1 0x40 PUSH0 KECCAK256 PUSH0 SWAP2 POP SWAP1 POP DUP1 PUSH0 ADD SLOAD SWAP1 DUP1 PUSH1 0x1 ADD DUP1 SLOAD PUSH2 0x433 SWAP1 PUSH2 0xBB2 JUMP JUMPDEST DUP1 PUSH1 0x1F ADD PUSH1 0x20 DUP1 SWAP2 DIV MUL PUSH1 0x20 ADD PUSH1 0x40 MLOAD SWAP1 DUP2 ADD PUSH1 0x40 MSTORE DUP1 SWAP3 SWAP2 SWAP1 DUP2 DUP2 MSTORE PUSH1 0x20 ADD DUP3 DUP1 SLOAD PUSH2 0x45F SWAP1 PUSH2 0xBB2 JUMP JUMPDEST DUP1 ISZERO PUSH2 0x4AA JUMPI DUP1 PUSH1 0x1F LT PUSH2 0x481 JUMPI PUSH2 0x100 DUP1 DUP4 SLOAD DIV MUL DUP4 MSTORE SWAP2 PUSH1 0x20 ADD SWAP2 PUSH2 0x4AA JUMP JUMPDEST DUP3 ADD SWAP2 SWAP1 PUSH0 MSTORE PUSH1 0x20 PUSH0 KECCAK256 SWAP1 JUMPDEST DUP2 SLOAD DUP2 MSTORE SWAP1 PUSH1 0x1 ADD SWAP1 PUSH1 0x20 ADD DUP1 DUP4 GT PUSH2 0x48D JUMPI DUP3 SWAP1 SUB PUSH1 0x1F AND DUP3 ADD SWAP2 JUMPDEST POP POP POP POP POP SWAP1 DUP1 PUSH1 0x2 ADD SLOAD SWAP1 DUP1 PUSH1 0x3 ADD SLOAD SWAP1 POP DUP5 JUMP JUMPDEST PUSH0 DUP1 SLOAD SWAP1 PUSH2 0x100 EXP SWAP1 DIV PUSH20 0xFFFFFFFFFFFFFFFFFFFFFFFFFFFFFFFFFFFFFFFF AND DUP2 JUMP JUMPDEST PUSH0 PUSH1 0x1 PUSH0 DUP5 DUP2 MSTORE PUSH1 0x20 ADD SWAP1 DUP2 MSTORE PUSH1 0x20 ADD PUSH0 KECCAK256 SWAP1 POP PUSH0 DUP2 PUSH0 ADD SLOAD SUB PUSH2 0x53C JUMPI PUSH1 0x40 MLOAD PUSH32 0x8C379A000000000000000000000000000000000000000000000000000000000 DUP2 MSTORE PUSH1 0x4 ADD PUSH2 0x533 SWAP1 PUSH2 0xE98 JUMP JUMPDEST PUSH1 0x40 MLOAD DUP1 SWAP2 SUB SWAP1 REVERT JUMPDEST DUP2 DUP2 PUSH1 0x3 ADD SLOAD LT ISZERO PUSH2 0x583 JUMPI PUSH1 0x40 MLOAD PUSH32 0x8C379A000000000000000000000000000000000000000000000000000000000 DUP2 MSTORE PUSH1 0x4 ADD PUSH2 0x57A SWAP1 PUSH2 0xF00 JUMP JUMPDEST PUSH1 0x40 MLOAD DUP1 SWAP2 SUB SWAP1 REVERT JUMPDEST DUP2 DUP2 PUSH1 0x2 ADD SLOAD PUSH2 0x593 SWAP2 SWAP1 PUSH2 0xF1E JUMP JUMPDEST CALLVALUE EQ PUSH2 0x5D4 JUMPI PUSH1 0x40 MLOAD PUSH32 0x8C379A000000000000000000000000000000000000000000000000000000000 DUP2 MSTORE PUSH1 0x4 ADD PUSH2 0x5CB SWAP1 PUSH2 0xFA9 JUMP JUMPDEST PUSH1 0x40 MLOAD DUP1 SWAP2 SUB SWAP1 REVERT JUMPDEST DUP2 DUP2 PUSH1 0x3 ADD PUSH0 DUP3 DUP3 SLOAD PUSH2 0x5E7 SWAP2 SWAP1 PUSH2 0xFC7 JUMP JUMPDEST SWAP3 POP POP DUP2 SWAP1 SSTORE POP PUSH32 0xA530F889D7F1BD9A73028E48944CA013AB2C6624A31E3FA26F923F4BB719ABD5 DUP4 CALLER DUP5 PUSH1 0x40 MLOAD PUSH2 0x621 SWAP4 SWAP3 SWAP2 SWAP1 PUSH2 0xFFA JUMP JUMPDEST PUSH1 0x40 MLOAD DUP1 SWAP2 SUB SWAP1 LOG1 POP POP POP JUMP JUMPDEST PUSH1 0x2 SLOAD DUP2 JUMP JUMPDEST PUSH0 PUSH1 0x40 MLOAD SWAP1 POP SWAP1 JUMP JUMPDEST PUSH0 DUP1 REVERT JUMPDEST PUSH0 DUP1 REVERT JUMPDEST PUSH0 DUP1 REVERT JUMPDEST PUSH0 DUP1 REVERT JUMPDEST PUSH0 PUSH1 0x1F NOT PUSH1 0x1F DUP4 ADD AND SWAP1 POP SWAP2 SWAP1 POP JUMP JUMPDEST PUSH32 0x4E487B7100000000000000000000000000000000000000000000000000000000 PUSH0 MSTORE PUSH1 0x41 PUSH1 0x4 MSTORE PUSH1 0x24 PUSH0 REVERT JUMPDEST PUSH2 0x693 DUP3 PUSH2 0x64D JUMP JUMPDEST DUP2 ADD DUP2 DUP2 LT PUSH8 0xFFFFFFFFFFFFFFFF DUP3 GT OR ISZERO PUSH2 0x6B2 JUMPI PUSH2 0x6B1 PUSH2 0x65D JUMP JUMPDEST JUMPDEST DUP1 PUSH1 0x40 MSTORE POP POP POP JUMP JUMPDEST PUSH0 PUSH2 0x6C4 PUSH2 0x634 JUMP JUMPDEST SWAP1 POP PUSH2 0x6D0 DUP3 DUP3 PUSH2 0x68A JUMP JUMPDEST SWAP2 SWAP1 POP JUMP JUMPDEST PUSH0 PUSH8 0xFFFFFFFFFFFFFFFF DUP3 GT ISZERO PUSH2 0x6EF JUMPI PUSH2 0x6EE PUSH2 0x65D JUMP JUMPDEST JUMPDEST PUSH2 0x6F8 DUP3 PUSH2 0x64D JUMP JUMPDEST SWAP1 POP PUSH1 0x20 DUP2 ADD SWAP1 POP SWAP2 SWAP1 POP JUMP JUMPDEST DUP3 DUP2 DUP4 CALLDATACOPY PUSH0 DUP4 DUP4 ADD MSTORE POP POP POP JUMP JUMPDEST PUSH0 PUSH2 0x725 PUSH2 0x720 DUP5 PUSH2 0x6D5 JUMP JUMPDEST PUSH2 0x6BB JUMP JUMPDEST SWAP1 POP DUP3 DUP2 MSTORE PUSH1 0x20 DUP2 ADD DUP5 DUP5 DUP5 ADD GT ISZERO PUSH2 0x741 JUMPI PUSH2 0x740 PUSH2 0x649 JUMP JUMPDEST JUMPDEST PUSH2 0x74C DUP5 DUP3 DUP6 PUSH2 0x705 JUMP JUMPDEST POP SWAP4 SWAP3 POP POP POP JUMP JUMPDEST PUSH0 DUP3 PUSH1 0x1F DUP4 ADD SLT PUSH2 0x768 JUMPI PUSH2 0x767 PUSH2 0x645 JUMP JUMPDEST JUMPDEST DUP2 CALLDATALOAD PUSH2 0x778 DUP5 DUP3 PUSH1 0x20 DUP7 ADD PUSH2 0x713 JUMP JUMPDEST SWAP2 POP POP SWAP3 SWAP2 POP POP JUMP JUMPDEST PUSH0 DUP2 SWAP1 POP SWAP2 SWAP1 POP JUMP JUMPDEST PUSH2 0x793 DUP2 PUSH2 0x781 JUMP JUMPDEST DUP2 EQ PUSH2 0x79D JUMPI PUSH0 DUP1 REVERT JUMPDEST POP JUMP JUMPDEST PUSH0 DUP2 CALLDATALOAD SWAP1 POP PUSH2 0x7AE DUP2 PUSH2 0x78A JUMP JUMPDEST SWAP3 SWAP2 POP POP JUMP JUMPDEST PUSH0 DUP1 PUSH0 PUSH1 0x60 DUP5 DUP7 SUB SLT ISZERO PUSH2 0x7CB JUMPI PUSH2 0x7CA PUSH2 0x63D JUMP JUMPDEST JUMPDEST PUSH0 DUP5 ADD CALLDATALOAD PUSH8 0xFFFFFFFFFFFFFFFF DUP2 GT ISZERO PUSH2 0x7E8 JUMPI PUSH2 0x7E7 PUSH2 0x641 JUMP JUMPDEST JUMPDEST PUSH2 0x7F4 DUP7 DUP3 DUP8 ADD PUSH2 0x754 JUMP JUMPDEST SWAP4 POP POP PUSH1 0x20 PUSH2 0x805 DUP7 DUP3 DUP8 ADD PUSH2 0x7A0 JUMP JUMPDEST SWAP3 POP POP PUSH1 0x40 PUSH2 0x816 DUP7 DUP3 DUP8 ADD PUSH2 0x7A0 JUMP JUMPDEST SWAP2 POP POP SWAP3 POP SWAP3 POP SWAP3 JUMP JUMPDEST PUSH0 PUSH1 0x20 DUP3 DUP5 SUB SLT ISZERO PUSH2 0x835 JUMPI PUSH2 0x834 PUSH2 0x63D JUMP JUMPDEST JUMPDEST PUSH0 PUSH2 0x842 DUP5 DUP3 DUP6 ADD PUSH2 0x7A0 JUMP JUMPDEST SWAP2 POP POP SWAP3 SWAP2 POP POP JUMP JUMPDEST PUSH2 0x854 DUP2 PUSH2 0x781 JUMP JUMPDEST DUP3 MSTORE POP POP JUMP JUMPDEST PUSH0 DUP2 MLOAD SWAP1 POP SWAP2 SWAP1 POP JUMP JUMPDEST PUSH0 DUP3 DUP3 MSTORE PUSH1 0x20 DUP3 ADD SWAP1 POP SWAP3 SWAP2 POP POP JUMP JUMPDEST DUP3 DUP2 DUP4 MCOPY PUSH0 DUP4 DUP4 ADD MSTORE POP POP POP JUMP JUMPDEST PUSH0 PUSH2 0x88C DUP3 PUSH2 0x85A JUMP JUMPDEST PUSH2 0x896 DUP2 DUP6 PUSH2 0x864 JUMP JUMPDEST SWAP4 POP PUSH2 0x8A6 DUP2 DUP6 PUSH1 0x20 DUP7 ADD PUSH2 0x874 JUMP JUMPDEST PUSH2 0x8AF DUP2 PUSH2 0x64D JUMP JUMPDEST DUP5 ADD SWAP2 POP POP SWAP3 SWAP2 POP POP JUMP JUMPDEST PUSH0 PUSH1 0x80 DUP3 ADD SWAP1 POP PUSH2 0x8CD PUSH0 DUP4 ADD DUP8 PUSH2 0x84B JUMP JUMPDEST DUP2 DUP2 SUB PUSH1 0x20 DUP4 ADD MSTORE PUSH2 0x8DF DUP2 DUP7 PUSH2 0x882 JUMP JUMPDEST SWAP1 POP PUSH2 0x8EE PUSH1 0x40 DUP4 ADD DUP6 PUSH2 0x84B JUMP JUMPDEST PUSH2 0x8FB PUSH1 0x60 DUP4 ADD DUP5 PUSH2 0x84B JUMP JUMPDEST SWAP6 SWAP5 POP POP POP POP POP JUMP JUMPDEST PUSH0 PUSH20 0xFFFFFFFFFFFFFFFFFFFFFFFFFFFFFFFFFFFFFFFF DUP3 AND SWAP1 POP SWAP2 SWAP1 POP JUMP JUMPDEST PUSH0 PUSH2 0x92D DUP3 PUSH2 0x904 JUMP JUMPDEST SWAP1 POP SWAP2 SWAP1 POP JUMP JUMPDEST PUSH2 0x93D DUP2 PUSH2 0x923 JUMP JUMPDEST DUP3 MSTORE POP POP JUMP JUMPDEST PUSH0 PUSH1 0x20 DUP3 ADD SWAP1 POP PUSH2 0x956 PUSH0 DUP4 ADD DUP5 PUSH2 0x934 JUMP JUMPDEST SWAP3 SWAP2 POP POP JUMP JUMPDEST PUSH0 DUP1 PUSH1 0x40 DUP4 DUP6 SUB SLT ISZERO PUSH2 0x972 JUMPI PUSH2 0x971 PUSH2 0x63D JUMP JUMPDEST JUMPDEST PUSH0 PUSH2 0x97F DUP6 DUP3 DUP7 ADD PUSH2 0x7A0 JUMP JUMPDEST SWAP3 POP POP PUSH1 0x20 PUSH2 0x990 DUP6 DUP3 DUP7 ADD PUSH2 0x7A0 JUMP JUMPDEST SWAP2 POP POP SWAP3 POP SWAP3 SWAP1 POP JUMP JUMPDEST PUSH0 PUSH1 0x20 DUP3 ADD SWAP1 POP PUSH2 0x9AD PUSH0 DUP4 ADD DUP5 PUSH2 0x84B JUMP JUMPDEST SWAP3 SWAP2 POP POP JUMP JUMPDEST PUSH32 0x4F6E6C79206F776E65722063616E20706572666F726D20746869732061637469 PUSH0 DUP3 ADD MSTORE PUSH32 0x6F6E000000000000000000000000000000000000000000000000000000000000 PUSH1 0x20 DUP3 ADD MSTORE POP JUMP JUMPDEST PUSH0 PUSH2 0xA0D PUSH1 0x22 DUP4 PUSH2 0x864 JUMP JUMPDEST SWAP2 POP PUSH2 0xA18 DUP3 PUSH2 0x9B3 JUMP JUMPDEST PUSH1 0x40 DUP3 ADD SWAP1 POP SWAP2 SWAP1 POP JUMP JUMPDEST PUSH0 PUSH1 0x20 DUP3 ADD SWAP1 POP DUP2 DUP2 SUB PUSH0 DUP4 ADD MSTORE PUSH2 0xA3A DUP2 PUSH2 0xA01 JUMP JUMPDEST SWAP1 POP SWAP2 SWAP1 POP JUMP JUMPDEST PUSH32 0x5072696365206D7573742062652067726561746572207468616E207A65726F00 PUSH0 DUP3 ADD MSTORE POP JUMP JUMPDEST PUSH0 PUSH2 0xA75 PUSH1 0x1F DUP4 PUSH2 0x864 JUMP JUMPDEST SWAP2 POP PUSH2 0xA80 DUP3 PUSH2 0xA41 JUMP JUMPDEST PUSH1 0x20 DUP3 ADD SWAP1 POP SWAP2 SWAP1 POP JUMP JUMPDEST PUSH0 PUSH1 0x20 DUP3 ADD SWAP1 POP DUP2 DUP2 SUB PUSH0 DUP4 ADD MSTORE PUSH2 0xAA2 DUP2 PUSH2 0xA69 JUMP JUMPDEST SWAP1 POP SWAP2 SWAP1 POP JUMP JUMPDEST PUSH32 0x53746F636B206D7573742062652067726561746572207468616E207A65726F00 PUSH0 DUP3 ADD MSTORE POP JUMP JUMPDEST PUSH0 PUSH2 0xADD PUSH1 0x1F DUP4 PUSH2 0x864 JUMP JUMPDEST SWAP2 POP PUSH2 0xAE8 DUP3 PUSH2 0xAA9 JUMP JUMPDEST PUSH1 0x20 DUP3 ADD SWAP1 POP SWAP2 SWAP1 POP JUMP JUMPDEST PUSH0 PUSH1 0x20 DUP3 ADD SWAP1 POP DUP2 DUP2 SUB PUSH0 DUP4 ADD MSTORE PUSH2 0xB0A DUP2 PUSH2 0xAD1 JUMP JUMPDEST SWAP1 POP SWAP2 SWAP1 POP JUMP JUMPDEST PUSH32 0x4E487B7100000000000000000000000000000000000000000000000000000000 PUSH0 MSTORE PUSH1 0x11 PUSH1 0x4 MSTORE PUSH1 0x24 PUSH0 REVERT JUMPDEST PUSH0 PUSH2 0xB48 DUP3 PUSH2 0x781 JUMP JUMPDEST SWAP2 POP PUSH32 0xFFFFFFFFFFFFFFFFFFFFFFFFFFFFFFFFFFFFFFFFFFFFFFFFFFFFFFFFFFFFFFFF DUP3 SUB PUSH2 0xB7A JUMPI PUSH2 0xB79 PUSH2 0xB11 JUMP JUMPDEST JUMPDEST PUSH1 0x1 DUP3 ADD SWAP1 POP SWAP2 SWAP1 POP JUMP JUMPDEST PUSH32 0x4E487B7100000000000000000000000000000000000000000000000000000000 PUSH0 MSTORE PUSH1 0x22 PUSH1 0x4 MSTORE PUSH1 0x24 PUSH0 REVERT JUMPDEST PUSH0 PUSH1 0x2 DUP3 DIV SWAP1 POP PUSH1 0x1 DUP3 AND DUP1 PUSH2 0xBC9 JUMPI PUSH1 0x7F DUP3 AND SWAP2 POP JUMPDEST PUSH1 0x20 DUP3 LT DUP2 SUB PUSH2 0xBDC JUMPI PUSH2 0xBDB PUSH2 0xB85 JUMP JUMPDEST JUMPDEST POP SWAP2 SWAP1 POP JUMP JUMPDEST PUSH0 DUP2 SWAP1 POP DUP2 PUSH0 MSTORE PUSH1 0x20 PUSH0 KECCAK256 SWAP1 POP SWAP2 SWAP1 POP JUMP JUMPDEST PUSH0 PUSH1 0x20 PUSH1 0x1F DUP4 ADD DIV SWAP1 POP SWAP2 SWAP1 POP JUMP JUMPDEST PUSH0 DUP3 DUP3 SHL SWAP1 POP SWAP3 SWAP2 POP POP JUMP JUMPDEST PUSH0 PUSH1 0x8 DUP4 MUL PUSH2 0xC3E PUSH32 0xFFFFFFFFFFFFFFFFFFFFFFFFFFFFFFFFFFFFFFFFFFFFFFFFFFFFFFFFFFFFFFFF DUP3 PUSH2 0xC03 JUMP JUMPDEST PUSH2 0xC48 DUP7 DUP4 PUSH2 0xC03 JUMP JUMPDEST SWAP6 POP DUP1 NOT DUP5 AND SWAP4 POP DUP1 DUP7 AND DUP5 OR SWAP3 POP POP POP SWAP4 SWAP3 POP POP POP JUMP JUMPDEST PUSH0 DUP2 SWAP1 POP SWAP2 SWAP1 POP JUMP JUMPDEST PUSH0 PUSH2 0xC83 PUSH2 0xC7E PUSH2 0xC79 DUP5 PUSH2 0x781 JUMP JUMPDEST PUSH2 0xC60 JUMP JUMPDEST PUSH2 0x781 JUMP JUMPDEST SWAP1 POP SWAP2 SWAP1 POP JUMP JUMPDEST PUSH0 DUP2 SWAP1 POP SWAP2 SWAP1 POP JUMP JUMPDEST PUSH2 0xC9C DUP4 PUSH2 0xC69 JUMP JUMPDEST PUSH2 0xCB0 PUSH2 0xCA8 DUP3 PUSH2 0xC8A JUMP JUMPDEST DUP5 DUP5 SLOAD PUSH2 0xC0F JUMP JUMPDEST DUP3 SSTORE POP POP POP POP JUMP JUMPDEST PUSH0 SWAP1 JUMP JUMPDEST PUSH2 0xCC4 PUSH2 0xCB8 JUMP JUMPDEST PUSH2 0xCCF DUP2 DUP5 DUP5 PUSH2 0xC93 JUMP JUMPDEST POP POP POP JUMP JUMPDEST JUMPDEST DUP2 DUP2 LT ISZERO PUSH2 0xCF2 JUMPI PUSH2 0xCE7 PUSH0 DUP3 PUSH2 0xCBC JUMP JUMPDEST PUSH1 0x1 DUP2 ADD SWAP1 POP PUSH2 0xCD5 JUMP JUMPDEST POP POP JUMP JUMPDEST PUSH1 0x1F DUP3 GT ISZERO PUSH2 0xD37 JUMPI PUSH2 0xD08 DUP2 PUSH2 0xBE2 JUMP JUMPDEST PUSH2 0xD11 DUP5 PUSH2 0xBF4 JUMP JUMPDEST DUP2 ADD PUSH1 0x20 DUP6 LT ISZERO PUSH2 0xD20 JUMPI DUP2 SWAP1 POP JUMPDEST PUSH2 0xD34 PUSH2 0xD2C DUP6 PUSH2 0xBF4 JUMP JUMPDEST DUP4 ADD DUP3 PUSH2 0xCD4 JUMP JUMPDEST POP POP JUMPDEST POP POP POP JUMP JUMPDEST PUSH0 DUP3 DUP3 SHR SWAP1 POP SWAP3 SWAP2 POP POP JUMP JUMPDEST PUSH0 PUSH2 0xD57 PUSH0 NOT DUP5 PUSH1 0x8 MUL PUSH2 0xD3C JUMP JUMPDEST NOT DUP1 DUP4 AND SWAP2 POP POP SWAP3 SWAP2 POP POP JUMP JUMPDEST PUSH0 PUSH2 0xD6F DUP4 DUP4 PUSH2 0xD48 JUMP JUMPDEST SWAP2 POP DUP3 PUSH1 0x2 MUL DUP3 OR SWAP1 POP SWAP3 SWAP2 POP POP JUMP JUMPDEST PUSH2 0xD88 DUP3 PUSH2 0x85A JUMP JUMPDEST PUSH8 0xFFFFFFFFFFFFFFFF DUP2 GT ISZERO PUSH2 0xDA1 JUMPI PUSH2 0xDA0 PUSH2 0x65D JUMP JUMPDEST JUMPDEST PUSH2 0xDAB DUP3 SLOAD PUSH2 0xBB2 JUMP JUMPDEST PUSH2 0xDB6 DUP3 DUP3 DUP6 PUSH2 0xCF6 JUMP JUMPDEST PUSH0 PUSH1 0x20 SWAP1 POP PUSH1 0x1F DUP4 GT PUSH1 0x1 DUP2 EQ PUSH2 0xDE7 JUMPI PUSH0 DUP5 ISZERO PUSH2 0xDD5 JUMPI DUP3 DUP8 ADD MLOAD SWAP1 POP JUMPDEST PUSH2 0xDDF DUP6 DUP3 PUSH2 0xD64 JUMP JUMPDEST DUP7 SSTORE POP PUSH2 0xE46 JUMP JUMPDEST PUSH1 0x1F NOT DUP5 AND PUSH2 0xDF5 DUP7 PUSH2 0xBE2 JUMP JUMPDEST PUSH0 JUMPDEST DUP3 DUP2 LT ISZERO PUSH2 0xE1C JUMPI DUP5 DUP10 ADD MLOAD DUP3 SSTORE PUSH1 0x1 DUP3 ADD SWAP2 POP PUSH1 0x20 DUP6 ADD SWAP5 POP PUSH1 0x20 DUP2 ADD SWAP1 POP PUSH2 0xDF7 JUMP JUMPDEST DUP7 DUP4 LT ISZERO PUSH2 0xE39 JUMPI DUP5 DUP10 ADD MLOAD PUSH2 0xE35 PUSH1 0x1F DUP10 AND DUP3 PUSH2 0xD48 JUMP JUMPDEST DUP4 SSTORE POP JUMPDEST PUSH1 0x1 PUSH1 0x2 DUP9 MUL ADD DUP9 SSTORE POP POP POP JUMPDEST POP POP POP POP POP POP JUMP JUMPDEST PUSH32 0x50726F6475637420646F6573206E6F7420657869737400000000000000000000 PUSH0 DUP3 ADD MSTORE POP JUMP JUMPDEST PUSH0 PUSH2 0xE82 PUSH1 0x16 DUP4 PUSH2 0x864 JUMP JUMPDEST SWAP2 POP PUSH2 0xE8D DUP3 PUSH2 0xE4E JUMP JUMPDEST PUSH1 0x20 DUP3 ADD SWAP1 POP SWAP2 SWAP1 POP JUMP JUMPDEST PUSH0 PUSH1 0x20 DUP3 ADD SWAP1 POP DUP2 DUP2 SUB PUSH0 DUP4 ADD MSTORE PUSH2 0xEAF DUP2 PUSH2 0xE76 JUMP JUMPDEST SWAP1 POP SWAP2 SWAP1 POP JUMP JUMPDEST PUSH32 0x4E6F7420656E6F7567682073746F636B20617661696C61626C65000000000000 PUSH0 DUP3 ADD MSTORE POP JUMP JUMPDEST PUSH0 PUSH2 0xEEA PUSH1 0x1A DUP4 PUSH2 0x864 JUMP JUMPDEST SWAP2 POP PUSH2 0xEF5 DUP3 PUSH2 0xEB6 JUMP JUMPDEST PUSH1 0x20 DUP3 ADD SWAP1 POP SWAP2 SWAP1 POP JUMP JUMPDEST PUSH0 PUSH1 0x20 DUP3 ADD SWAP1 POP DUP2 DUP2 SUB PUSH0 DUP4 ADD MSTORE PUSH2 0xF17 DUP2 PUSH2 0xEDE JUMP JUMPDEST SWAP1 POP SWAP2 SWAP1 POP JUMP JUMPDEST PUSH0 PUSH2 0xF28 DUP3 PUSH2 0x781 JUMP JUMPDEST SWAP2 POP PUSH2 0xF33 DUP4 PUSH2 0x781 JUMP JUMPDEST SWAP3 POP DUP3 DUP3 MUL PUSH2 0xF41 DUP2 PUSH2 0x781 JUMP JUMPDEST SWAP2 POP DUP3 DUP3 DIV DUP5 EQ DUP4 ISZERO OR PUSH2 0xF58 JUMPI PUSH2 0xF57 PUSH2 0xB11 JUMP JUMPDEST JUMPDEST POP SWAP3 SWAP2 POP POP JUMP JUMPDEST PUSH32 0x496E636F7272656374207061796D656E7420616D6F756E740000000000000000 PUSH0 DUP3 ADD MSTORE POP JUMP JUMPDEST PUSH0 PUSH2 0xF93 PUSH1 0x18 DUP4 PUSH2 0x864 JUMP JUMPDEST SWAP2 POP PUSH2 0xF9E DUP3 PUSH2 0xF5F JUMP JUMPDEST PUSH1 0x20 DUP3 ADD SWAP1 POP SWAP2 SWAP1 POP JUMP JUMPDEST PUSH0 PUSH1 0x20 DUP3 ADD SWAP1 POP DUP2 DUP2 SUB PUSH0 DUP4 ADD MSTORE PUSH2 0xFC0 DUP2 PUSH2 0xF87 JUMP JUMPDEST SWAP1 POP SWAP2 SWAP1 POP JUMP JUMPDEST PUSH0 PUSH2 0xFD1 DUP3 PUSH2 0x781 JUMP JUMPDEST SWAP2 POP PUSH2 0xFDC DUP4 PUSH2 0x781 JUMP JUMPDEST SWAP3 POP DUP3 DUP3 SUB SWAP1 POP DUP2 DUP2 GT ISZERO PUSH2 0xFF4 JUMPI PUSH2 0xFF3 PUSH2 0xB11 JUMP JUMPDEST JUMPDEST SWAP3 SWAP2 POP POP JUMP JUMPDEST PUSH0 PUSH1 0x60 DUP3 ADD SWAP1 POP PUSH2 0x100D PUSH0 DUP4 ADD DUP7 PUSH2 0x84B JUMP JUMPDEST PUSH2 0x101A PUSH1 0x20 DUP4 ADD DUP6 PUSH2 0x934 JUMP JUMPDEST PUSH2 0x1027 PUSH1 0x40 DUP4 ADD DUP5 PUSH2 0x84B JUMP JUMPDEST SWAP5 SWAP4 POP POP POP POP JUMP INVALID LOG2 PUSH5 0x6970667358 0x22 SLT KECCAK256 SWAP16 BLOBBASEFEE 0xE1 0xE0 0x23 0xE5 0xD1 PUSH6 0xB3A8B7E8B9A7 0xA7 0x4D PUSH2 0xC6FE 0xB9 COINBASE 0xB3 0xCE 0xD4 NUMBER SWAP3 0x4E 0xA7 0xAC INVALID RETURNDATACOPY 0xC2 PUSH5 0x736F6C6343 STOP ADDMOD BYTE STOP CALLER "
				},
				"gasEstimates": {
					"creation": {
						"codeDepositCost": "839400",
						"executionCost": "25140",
						"totalCost": "864540"
					},
					"external": {
						"addProduct(string,uint256,uint256)": "infinite",
						"owner()": "2549",
						"productCount()": "2513",
						"products(uint256)": "infinite",
						"purchaseProduct(uint256,uint256)": "infinite",
						"withdrawFunds()": "infinite"
					}
				},
				"methodIdentifiers": {
					"addProduct(string,uint256,uint256)": "125b0b34",
					"owner()": "8da5cb5b",
					"productCount()": "e0f6ef87",
					"products(uint256)": "7acc0b20",
					"purchaseProduct(uint256,uint256)": "a0440426",
					"withdrawFunds()": "24600fc3"
				}
			},
			"storageLayout": {
				"storage": [
					{
						"astId": 3,
						"contract": "contracts/hi.sol:OnlineShop",
						"label": "owner",
						"offset": 0,
						"slot": "0",
						"type": "t_address"
					},
					{
						"astId": 17,
						"contract": "contracts/hi.sol:OnlineShop",
						"label": "products",
						"offset": 0,
						"slot": "1",
						"type": "t_mapping(t_uint256,t_struct(Product)12_storage)"
					},
					{
						"astId": 19,
						"contract": "contracts/hi.sol:OnlineShop",
						"label": "productCount",
						"offset": 0,
						"slot": "2",
						"type": "t_uint256"
					}
				],
				"types": {
					"t_address": {
						"encoding": "inplace",
						"label": "address",
						"numberOfBytes": "20"
					},
					"t_mapping(t_uint256,t_struct(Product)12_storage)": {
						"encoding": "mapping",
						"key": "t_uint256",
						"label": "mapping(uint256 => struct OnlineShop.Product)",
						"numberOfBytes": "32",
						"value": "t_struct(Product)12_storage"
					},
					"t_string_storage": {
						"encoding": "bytes",
						"label": "string",
						"numberOfBytes": "32"
					},
					"t_struct(Product)12_storage": {
						"encoding": "inplace",
						"label": "struct OnlineShop.Product",
						"members": [
							{
								"astId": 5,
								"contract": "contracts/hi.sol:OnlineShop",
								"label": "id",
								"offset": 0,
								"slot": "0",
								"type": "t_uint256"
							},
							{
								"astId": 7,
								"contract": "contracts/hi.sol:OnlineShop",
								"label": "name",
								"offset": 0,
								"slot": "1",
								"type": "t_string_storage"
							},
							{
								"astId": 9,
								"contract": "contracts/hi.sol:OnlineShop",
								"label": "price",
								"offset": 0,
								"slot": "2",
								"type": "t_uint256"
							},
							{
								"astId": 11,
								"contract": "contracts/hi.sol:OnlineShop",
								"label": "stock",
								"offset": 0,
								"slot": "3",
								"type": "t_uint256"
							}
						],
						"numberOfBytes": "128"
					},
					"t_uint256": {
						"encoding": "inplace",
						"label": "uint256",
						"numberOfBytes": "32"
					}
				}
			},
			"userdoc": {
				"kind": "user",
				"methods": {},
				"version": 1
			}
		}
	}
}